{
  "_format": "hh-sol-artifact-1",
  "contractName": "NFTFactory",
  "sourceName": "contracts/Factory.sol",
  "abi": [
    {
      "inputs": [],
      "stateMutability": "nonpayable",
      "type": "constructor"
    },
    {
      "inputs": [],
      "name": "FailedDeployment",
      "type": "error"
    },
    {
      "inputs": [
        {
          "internalType": "uint256",
          "name": "balance",
          "type": "uint256"
        },
        {
          "internalType": "uint256",
          "name": "needed",
          "type": "uint256"
        }
      ],
      "name": "InsufficientBalance",
      "type": "error"
    },
    {
      "inputs": [],
      "name": "InvalidInitialization",
      "type": "error"
    },
    {
      "inputs": [],
      "name": "NotInitializing",
      "type": "error"
    },
    {
      "inputs": [
        {
          "internalType": "address",
          "name": "owner",
          "type": "address"
        }
      ],
      "name": "OwnableInvalidOwner",
      "type": "error"
    },
    {
      "inputs": [
        {
          "internalType": "address",
          "name": "account",
          "type": "address"
        }
      ],
      "name": "OwnableUnauthorizedAccount",
      "type": "error"
    },
    {
      "anonymous": false,
      "inputs": [
        {
          "indexed": true,
          "internalType": "address",
          "name": "cloneAddress",
          "type": "address"
        },
        {
          "indexed": true,
          "internalType": "address",
          "name": "owner",
          "type": "address"
        }
      ],
      "name": "CloneCreated",
      "type": "event"
    },
    {
      "anonymous": false,
      "inputs": [
        {
          "indexed": false,
          "internalType": "uint64",
          "name": "version",
          "type": "uint64"
        }
      ],
      "name": "Initialized",
      "type": "event"
    },
    {
      "anonymous": false,
      "inputs": [
        {
          "indexed": true,
          "internalType": "address",
          "name": "previousOwner",
          "type": "address"
        },
        {
          "indexed": true,
          "internalType": "address",
          "name": "newOwner",
          "type": "address"
        }
      ],
      "name": "OwnershipTransferred",
      "type": "event"
    },
    {
      "inputs": [
        {
          "internalType": "uint256",
          "name": "",
          "type": "uint256"
        }
      ],
      "name": "allClones",
      "outputs": [
        {
          "internalType": "address",
          "name": "",
          "type": "address"
        }
      ],
      "stateMutability": "view",
      "type": "function"
    },
    {
      "inputs": [
        {
          "internalType": "string",
          "name": "name",
          "type": "string"
        },
        {
          "internalType": "string",
          "name": "symbol",
          "type": "string"
        }
      ],
      "name": "createClone",
      "outputs": [
        {
          "internalType": "address",
          "name": "",
          "type": "address"
        }
      ],
      "stateMutability": "nonpayable",
      "type": "function"
    },
    {
      "inputs": [],
      "name": "getAllClones",
      "outputs": [
        {
          "internalType": "address[]",
          "name": "",
          "type": "address[]"
        }
      ],
      "stateMutability": "view",
      "type": "function"
    },
    {
      "inputs": [],
      "name": "implementation",
      "outputs": [
        {
          "internalType": "address",
          "name": "",
          "type": "address"
        }
      ],
      "stateMutability": "view",
      "type": "function"
    },
    {
      "inputs": [
        {
          "internalType": "address",
          "name": "_implementation",
          "type": "address"
        }
      ],
      "name": "initialize",
      "outputs": [],
      "stateMutability": "nonpayable",
      "type": "function"
    },
    {
      "inputs": [],
      "name": "owner",
      "outputs": [
        {
          "internalType": "address",
          "name": "",
          "type": "address"
        }
      ],
      "stateMutability": "view",
      "type": "function"
    },
    {
      "inputs": [],
      "name": "renounceOwnership",
      "outputs": [],
      "stateMutability": "nonpayable",
      "type": "function"
    },
    {
      "inputs": [
        {
          "internalType": "address",
          "name": "newOwner",
          "type": "address"
        }
      ],
      "name": "transferOwnership",
      "outputs": [],
      "stateMutability": "nonpayable",
      "type": "function"
    },
    {
      "inputs": [
        {
          "internalType": "address",
          "name": "newImpl",
          "type": "address"
        }
      ],
      "name": "updateImplementation",
      "outputs": [],
      "stateMutability": "nonpayable",
      "type": "function"
    }
  ],
  "bytecode": "0x608060405234801561001057600080fd5b5061001f61002460201b60201c565b6101ab565b600061003461012860201b60201c565b90508060000160089054906101000a900460ff161561007f576040517ff92ee8a900000000000000000000000000000000000000000000000000000000815260040160405180910390fd5b67ffffffffffffffff80168160000160009054906101000a900467ffffffffffffffff1667ffffffffffffffff16146101255767ffffffffffffffff8160000160006101000a81548167ffffffffffffffff021916908367ffffffffffffffff1602179055507fc7f505b2f371ae2175ee4913f4499e1f2633a7b5936321eed1cdaeb6115181d267ffffffffffffffff60405161011c9190610190565b60405180910390a15b50565b60008061013961014260201b60201c565b90508091505090565b60007ff0c57e16840df040f15088dc2f81fe391c3923bec73e23a9662efc9c229c6a0060001b905090565b600067ffffffffffffffff82169050919050565b61018a8161016d565b82525050565b60006020820190506101a56000830184610181565b92915050565b6112b8806101ba6000396000f3fe608060405234801561001057600080fd5b50600436106100935760003560e01c8063715018a611610066578063715018a6146101205780638da5cb5b1461012a578063c4d66de814610148578063d7741cad14610164578063f2fde38b1461019457610093565b8063025b22bc1461009857806327831ee0146100b4578063290fd796146100d25780635c60da1b14610102575b600080fd5b6100b260048036038101906100ad9190610ce1565b6101b0565b005b6100bc61026a565b6040516100c99190610dcc565b60405180910390f35b6100ec60048036038101906100e79190610f34565b6102f8565b6040516100f99190610fbb565b60405180910390f35b61010a6104aa565b6040516101179190610fbb565b60405180910390f35b6101286104ce565b005b6101326104e2565b60405161013f9190610fbb565b60405180910390f35b610162600480360381019061015d9190610ce1565b61051a565b005b61017e6004803603810190610179919061100c565b6106e9565b60405161018b9190610fbb565b60405180910390f35b6101ae60048036038101906101a99190610ce1565b610728565b005b6101b86107ae565b600073ffffffffffffffffffffffffffffffffffffffff168173ffffffffffffffffffffffffffffffffffffffff1603610227576040517f08c379a000000000000000000000000000000000000000000000000000000000815260040161021e90611096565b60405180910390fd5b806000806101000a81548173ffffffffffffffffffffffffffffffffffffffff021916908373ffffffffffffffffffffffffffffffffffffffff16021790555050565b606060018054806020026020016040519081016040528092919081815260200182805480156102ee57602002820191906000526020600020905b8160009054906101000a900473ffffffffffffffffffffffffffffffffffffffff1673ffffffffffffffffffffffffffffffffffffffff16815260200190600101908083116102a4575b5050505050905090565b60008061032460008054906101000a900473ffffffffffffffffffffffffffffffffffffffff16610835565b905061036d6103316104e2565b336040518060400160405280601181526020017f2d2d2d2d2d2d2d2d2d2d2d2d6f776e6572000000000000000000000000000000815250610849565b8073ffffffffffffffffffffffffffffffffffffffff1663077f224a85856103936104e2565b6040518463ffffffff1660e01b81526004016103b193929190611124565b600060405180830381600087803b1580156103cb57600080fd5b505af11580156103df573d6000803e3d6000fd5b505050506001819080600181540180825580915050600190039060005260206000200160009091909190916101000a81548173ffffffffffffffffffffffffffffffffffffffff021916908373ffffffffffffffffffffffffffffffffffffffff1602179055503373ffffffffffffffffffffffffffffffffffffffff168173ffffffffffffffffffffffffffffffffffffffff167f3d2b821286d97aa9d35330d87a82f7b548b9737b10e2d1ba59994edfd50e9d2b60405160405180910390a38091505092915050565b60008054906101000a900473ffffffffffffffffffffffffffffffffffffffff1681565b6104d66107ae565b6104e060006108e7565b565b6000806104ed6109be565b90508060000160009054906101000a900473ffffffffffffffffffffffffffffffffffffffff1691505090565b60006105246109e6565b905060008160000160089054906101000a900460ff1615905060008260000160009054906101000a900467ffffffffffffffff1690506000808267ffffffffffffffff161480156105725750825b9050600060018367ffffffffffffffff161480156105a7575060003073ffffffffffffffffffffffffffffffffffffffff163b145b9050811580156105b5575080155b156105ec576040517ff92ee8a900000000000000000000000000000000000000000000000000000000815260040160405180910390fd5b60018560000160006101000a81548167ffffffffffffffff021916908367ffffffffffffffff160217905550831561063c5760018560000160086101000a81548160ff0219169083151502179055505b610645336109fa565b856000806101000a81548173ffffffffffffffffffffffffffffffffffffffff021916908373ffffffffffffffffffffffffffffffffffffffff16021790555083156106e15760008560000160086101000a81548160ff0219169083151502179055507fc7f505b2f371ae2175ee4913f4499e1f2633a7b5936321eed1cdaeb6115181d260016040516106d891906111c2565b60405180910390a15b505050505050565b600181815481106106f957600080fd5b906000526020600020016000915054906101000a900473ffffffffffffffffffffffffffffffffffffffff1681565b6107306107ae565b600073ffffffffffffffffffffffffffffffffffffffff168173ffffffffffffffffffffffffffffffffffffffff16036107a25760006040517f1e4fbdf70000000000000000000000000000000000000000000000000000000081526004016107999190610fbb565b60405180910390fd5b6107ab816108e7565b50565b6107b6610a0e565b73ffffffffffffffffffffffffffffffffffffffff166107d46104e2565b73ffffffffffffffffffffffffffffffffffffffff1614610833576107f7610a0e565b6040517f118cdaa700000000000000000000000000000000000000000000000000000000815260040161082a9190610fbb565b60405180910390fd5b565b6000610842826000610a16565b9050919050565b6108e2838383604051602401610861939291906111dd565b6040516020818303038152906040527e7150be000000000000000000000000000000000000000000000000000000007bffffffffffffffffffffffffffffffffffffffffffffffffffffffff19166020820180517bffffffffffffffffffffffffffffffffffffffffffffffffffffffff8381831617835250505050610b0e565b505050565b60006108f16109be565b905060008160000160009054906101000a900473ffffffffffffffffffffffffffffffffffffffff169050828260000160006101000a81548173ffffffffffffffffffffffffffffffffffffffff021916908373ffffffffffffffffffffffffffffffffffffffff1602179055508273ffffffffffffffffffffffffffffffffffffffff168173ffffffffffffffffffffffffffffffffffffffff167f8be0079c531659141344cd1fd0a4f28419497f9722a3daafe3b4186f6b6457e060405160405180910390a3505050565b60007f9016d09d72d40fdae2fd8ceac6b6234c7706214fd39c1cd1e609a0528c199300905090565b6000806109f1610b28565b90508091505090565b610a02610b53565b610a0b81610b93565b50565b600033905090565b600081471015610a5f5747826040517fcf479181000000000000000000000000000000000000000000000000000000008152600401610a5692919061122a565b60405180910390fd5b763d602d80600a3d3981f3363d3d373d3d3d363d730000008360601b60e81c176000526e5af43d82803e903d91602b57fd5bf38360781b176020526037600983f09050600073ffffffffffffffffffffffffffffffffffffffff168173ffffffffffffffffffffffffffffffffffffffff1603610b08576040517fb06ebf3d00000000000000000000000000000000000000000000000000000000815260040160405180910390fd5b92915050565b610b2581610b1d610c19610c3a565b63ffffffff16565b50565b60007ff0c57e16840df040f15088dc2f81fe391c3923bec73e23a9662efc9c229c6a0060001b905090565b610b5b610c45565b610b91576040517fd7e6bcf800000000000000000000000000000000000000000000000000000000815260040160405180910390fd5b565b610b9b610b53565b600073ffffffffffffffffffffffffffffffffffffffff168173ffffffffffffffffffffffffffffffffffffffff1603610c0d5760006040517f1e4fbdf7000000000000000000000000000000000000000000000000000000008152600401610c049190610fbb565b60405180910390fd5b610c16816108e7565b50565b60006a636f6e736f6c652e6c6f679050600080835160208501845afa505050565b610c65819050919050565b6000610c4f6109e6565b60000160089054906101000a900460ff16905090565b610c6d611253565b565b6000604051905090565b600080fd5b600080fd5b600073ffffffffffffffffffffffffffffffffffffffff82169050919050565b6000610cae82610c83565b9050919050565b610cbe81610ca3565b8114610cc957600080fd5b50565b600081359050610cdb81610cb5565b92915050565b600060208284031215610cf757610cf6610c79565b5b6000610d0584828501610ccc565b91505092915050565b600081519050919050565b600082825260208201905092915050565b6000819050602082019050919050565b610d4381610ca3565b82525050565b6000610d558383610d3a565b60208301905092915050565b6000602082019050919050565b6000610d7982610d0e565b610d838185610d19565b9350610d8e83610d2a565b8060005b83811015610dbf578151610da68882610d49565b9750610db183610d61565b925050600181019050610d92565b5085935050505092915050565b60006020820190508181036000830152610de68184610d6e565b905092915050565b600080fd5b600080fd5b6000601f19601f8301169050919050565b7f4e487b7100000000000000000000000000000000000000000000000000000000600052604160045260246000fd5b610e4182610df8565b810181811067ffffffffffffffff82111715610e6057610e5f610e09565b5b80604052505050565b6000610e73610c6f565b9050610e7f8282610e38565b919050565b600067ffffffffffffffff821115610e9f57610e9e610e09565b5b610ea882610df8565b9050602081019050919050565b82818337600083830152505050565b6000610ed7610ed284610e84565b610e69565b905082815260208101848484011115610ef357610ef2610df3565b5b610efe848285610eb5565b509392505050565b600082601f830112610f1b57610f1a610dee565b5b8135610f2b848260208601610ec4565b91505092915050565b60008060408385031215610f4b57610f4a610c79565b5b600083013567ffffffffffffffff811115610f6957610f68610c7e565b5b610f7585828601610f06565b925050602083013567ffffffffffffffff811115610f9657610f95610c7e565b5b610fa285828601610f06565b9150509250929050565b610fb581610ca3565b82525050565b6000602082019050610fd06000830184610fac565b92915050565b6000819050919050565b610fe981610fd6565b8114610ff457600080fd5b50565b60008135905061100681610fe0565b92915050565b60006020828403121561102257611021610c79565b5b600061103084828501610ff7565b91505092915050565b600082825260208201905092915050565b7f496e76616c696420696d706c656d656e746174696f6e00000000000000000000600082015250565b6000611080601683611039565b915061108b8261104a565b602082019050919050565b600060208201905081810360008301526110af81611073565b9050919050565b600081519050919050565b60005b838110156110df5780820151818401526020810190506110c4565b60008484015250505050565b60006110f6826110b6565b6111008185611039565b93506111108185602086016110c1565b61111981610df8565b840191505092915050565b6000606082019050818103600083015261113e81866110eb565b9050818103602083015261115281856110eb565b90506111616040830184610fac565b949350505050565b6000819050919050565b600067ffffffffffffffff82169050919050565b6000819050919050565b60006111ac6111a76111a284611169565b611187565b611173565b9050919050565b6111bc81611191565b82525050565b60006020820190506111d760008301846111b3565b92915050565b60006060820190506111f26000830186610fac565b6111ff6020830185610fac565b818103604083015261121181846110eb565b9050949350505050565b61122481610fd6565b82525050565b600060408201905061123f600083018561121b565b61124c602083018461121b565b9392505050565b7f4e487b7100000000000000000000000000000000000000000000000000000000600052605160045260246000fdfea2646970667358221220f28508df2adc3889f0d45cfddc2f34aa72f3bf1ae5974a67607f34f00db1b01964736f6c634300081c0033",
  "linkReferences": {},
  "deployedLinkReferences": {}
}