{
  "_format": "hh-sol-artifact-1",
  "contractName": "NFTFactory",
  "sourceName": "contracts/Factory.sol",
  "abi": [
    {
      "inputs": [],
      "stateMutability": "nonpayable",
      "type": "constructor"
    },
    {
      "inputs": [],
      "name": "FailedDeployment",
      "type": "error"
    },
    {
      "inputs": [
        {
          "internalType": "uint256",
          "name": "balance",
          "type": "uint256"
        },
        {
          "internalType": "uint256",
          "name": "needed",
          "type": "uint256"
        }
      ],
      "name": "InsufficientBalance",
      "type": "error"
    },
    {
      "inputs": [],
      "name": "InvalidInitialization",
      "type": "error"
    },
    {
      "inputs": [],
      "name": "NotInitializing",
      "type": "error"
    },
    {
      "inputs": [
        {
          "internalType": "address",
          "name": "owner",
          "type": "address"
        }
      ],
      "name": "OwnableInvalidOwner",
      "type": "error"
    },
    {
      "inputs": [
        {
          "internalType": "address",
          "name": "account",
          "type": "address"
        }
      ],
      "name": "OwnableUnauthorizedAccount",
      "type": "error"
    },
    {
      "anonymous": false,
      "inputs": [
        {
          "indexed": true,
          "internalType": "address",
          "name": "cloneAddress",
          "type": "address"
        },
        {
          "indexed": true,
          "internalType": "address",
          "name": "owner",
          "type": "address"
        }
      ],
      "name": "CloneCreated",
      "type": "event"
    },
    {
      "anonymous": false,
      "inputs": [
        {
          "indexed": false,
          "internalType": "uint64",
          "name": "version",
          "type": "uint64"
        }
      ],
      "name": "Initialized",
      "type": "event"
    },
    {
      "anonymous": false,
      "inputs": [
        {
          "indexed": true,
          "internalType": "address",
          "name": "previousOwner",
          "type": "address"
        },
        {
          "indexed": true,
          "internalType": "address",
          "name": "newOwner",
          "type": "address"
        }
      ],
      "name": "OwnershipTransferred",
      "type": "event"
    },
    {
      "inputs": [
        {
          "internalType": "uint256",
          "name": "",
          "type": "uint256"
        }
      ],
      "name": "allClones",
      "outputs": [
        {
          "internalType": "address",
          "name": "",
          "type": "address"
        }
      ],
      "stateMutability": "view",
      "type": "function"
    },
    {
      "inputs": [
        {
          "internalType": "string",
          "name": "name",
          "type": "string"
        },
        {
          "internalType": "string",
          "name": "symbol",
          "type": "string"
        }
      ],
      "name": "createClone",
      "outputs": [
        {
          "internalType": "address",
          "name": "",
          "type": "address"
        }
      ],
      "stateMutability": "nonpayable",
      "type": "function"
    },
    {
      "inputs": [],
      "name": "getAllClones",
      "outputs": [
        {
          "internalType": "address[]",
          "name": "",
          "type": "address[]"
        }
      ],
      "stateMutability": "view",
      "type": "function"
    },
    {
      "inputs": [],
      "name": "implementation",
      "outputs": [
        {
          "internalType": "address",
          "name": "",
          "type": "address"
        }
      ],
      "stateMutability": "view",
      "type": "function"
    },
    {
      "inputs": [
        {
          "internalType": "address",
          "name": "_implementation",
          "type": "address"
        }
      ],
      "name": "initialize",
      "outputs": [],
      "stateMutability": "nonpayable",
      "type": "function"
    },
    {
      "inputs": [],
      "name": "owner",
      "outputs": [
        {
          "internalType": "address",
          "name": "",
          "type": "address"
        }
      ],
      "stateMutability": "view",
      "type": "function"
    },
    {
      "inputs": [],
      "name": "renounceOwnership",
      "outputs": [],
      "stateMutability": "nonpayable",
      "type": "function"
    },
    {
      "inputs": [
        {
          "internalType": "address",
          "name": "newOwner",
          "type": "address"
        }
      ],
      "name": "transferOwnership",
      "outputs": [],
      "stateMutability": "nonpayable",
      "type": "function"
    },
    {
      "inputs": [
        {
          "internalType": "address",
          "name": "newImpl",
          "type": "address"
        }
      ],
      "name": "updateImplementation",
      "outputs": [],
      "stateMutability": "nonpayable",
      "type": "function"
    }
  ],
  "bytecode": "0x608060405234801561001057600080fd5b5061001f61002460201b60201c565b6101ab565b600061003461012860201b60201c565b90508060000160089054906101000a900460ff161561007f576040517ff92ee8a900000000000000000000000000000000000000000000000000000000815260040160405180910390fd5b67ffffffffffffffff80168160000160009054906101000a900467ffffffffffffffff1667ffffffffffffffff16146101255767ffffffffffffffff8160000160006101000a81548167ffffffffffffffff021916908367ffffffffffffffff1602179055507fc7f505b2f371ae2175ee4913f4499e1f2633a7b5936321eed1cdaeb6115181d267ffffffffffffffff60405161011c9190610190565b60405180910390a15b50565b60008061013961014260201b60201c565b90508091505090565b60007ff0c57e16840df040f15088dc2f81fe391c3923bec73e23a9662efc9c229c6a0060001b905090565b600067ffffffffffffffff82169050919050565b61018a8161016d565b82525050565b60006020820190506101a56000830184610181565b92915050565b6110ff806101ba6000396000f3fe608060405234801561001057600080fd5b50600436106100935760003560e01c8063715018a611610066578063715018a6146101205780638da5cb5b1461012a578063c4d66de814610148578063d7741cad14610164578063f2fde38b1461019457610093565b8063025b22bc1461009857806327831ee0146100b4578063290fd796146100d25780635c60da1b14610102575b600080fd5b6100b260048036038101906100ad9190610ba3565b6101b0565b005b6100bc61026a565b6040516100c99190610c8e565b60405180910390f35b6100ec60048036038101906100e79190610df6565b6102f8565b6040516100f99190610e7d565b60405180910390f35b61010a61045a565b6040516101179190610e7d565b60405180910390f35b61012861047e565b005b610132610492565b60405161013f9190610e7d565b60405180910390f35b610162600480360381019061015d9190610ba3565b6104ca565b005b61017e60048036038101906101799190610ece565b610699565b60405161018b9190610e7d565b60405180910390f35b6101ae60048036038101906101a99190610ba3565b6106d8565b005b6101b861075e565b600073ffffffffffffffffffffffffffffffffffffffff168173ffffffffffffffffffffffffffffffffffffffff1603610227576040517f08c379a000000000000000000000000000000000000000000000000000000000815260040161021e90610f58565b60405180910390fd5b806000806101000a81548173ffffffffffffffffffffffffffffffffffffffff021916908373ffffffffffffffffffffffffffffffffffffffff16021790555050565b606060018054806020026020016040519081016040528092919081815260200182805480156102ee57602002820191906000526020600020905b8160009054906101000a900473ffffffffffffffffffffffffffffffffffffffff1673ffffffffffffffffffffffffffffffffffffffff16815260200190600101908083116102a4575b5050505050905090565b60008061032460008054906101000a900473ffffffffffffffffffffffffffffffffffffffff166107e5565b90508073ffffffffffffffffffffffffffffffffffffffff16634cd88b7685856040518363ffffffff1660e01b8152600401610361929190610fe6565b600060405180830381600087803b15801561037b57600080fd5b505af115801561038f573d6000803e3d6000fd5b505050506001819080600181540180825580915050600190039060005260206000200160009091909190916101000a81548173ffffffffffffffffffffffffffffffffffffffff021916908373ffffffffffffffffffffffffffffffffffffffff1602179055503373ffffffffffffffffffffffffffffffffffffffff168173ffffffffffffffffffffffffffffffffffffffff167f3d2b821286d97aa9d35330d87a82f7b548b9737b10e2d1ba59994edfd50e9d2b60405160405180910390a38091505092915050565b60008054906101000a900473ffffffffffffffffffffffffffffffffffffffff1681565b61048661075e565b61049060006107f9565b565b60008061049d6108d0565b90508060000160009054906101000a900473ffffffffffffffffffffffffffffffffffffffff1691505090565b60006104d46108f8565b905060008160000160089054906101000a900460ff1615905060008260000160009054906101000a900467ffffffffffffffff1690506000808267ffffffffffffffff161480156105225750825b9050600060018367ffffffffffffffff16148015610557575060003073ffffffffffffffffffffffffffffffffffffffff163b145b905081158015610565575080155b1561059c576040517ff92ee8a900000000000000000000000000000000000000000000000000000000815260040160405180910390fd5b60018560000160006101000a81548167ffffffffffffffff021916908367ffffffffffffffff16021790555083156105ec5760018560000160086101000a81548160ff0219169083151502179055505b6105f53361090c565b856000806101000a81548173ffffffffffffffffffffffffffffffffffffffff021916908373ffffffffffffffffffffffffffffffffffffffff16021790555083156106915760008560000160086101000a81548160ff0219169083151502179055507fc7f505b2f371ae2175ee4913f4499e1f2633a7b5936321eed1cdaeb6115181d260016040516106889190611076565b60405180910390a15b505050505050565b600181815481106106a957600080fd5b906000526020600020016000915054906101000a900473ffffffffffffffffffffffffffffffffffffffff1681565b6106e061075e565b600073ffffffffffffffffffffffffffffffffffffffff168173ffffffffffffffffffffffffffffffffffffffff16036107525760006040517f1e4fbdf70000000000000000000000000000000000000000000000000000000081526004016107499190610e7d565b60405180910390fd5b61075b816107f9565b50565b610766610920565b73ffffffffffffffffffffffffffffffffffffffff16610784610492565b73ffffffffffffffffffffffffffffffffffffffff16146107e3576107a7610920565b6040517f118cdaa70000000000000000000000000000000000000000000000000000000081526004016107da9190610e7d565b60405180910390fd5b565b60006107f2826000610928565b9050919050565b60006108036108d0565b905060008160000160009054906101000a900473ffffffffffffffffffffffffffffffffffffffff169050828260000160006101000a81548173ffffffffffffffffffffffffffffffffffffffff021916908373ffffffffffffffffffffffffffffffffffffffff1602179055508273ffffffffffffffffffffffffffffffffffffffff168173ffffffffffffffffffffffffffffffffffffffff167f8be0079c531659141344cd1fd0a4f28419497f9722a3daafe3b4186f6b6457e060405160405180910390a3505050565b60007f9016d09d72d40fdae2fd8ceac6b6234c7706214fd39c1cd1e609a0528c199300905090565b600080610903610a20565b90508091505090565b610914610a4b565b61091d81610a8b565b50565b600033905090565b6000814710156109715747826040517fcf4791810000000000000000000000000000000000000000000000000000000081526004016109689291906110a0565b60405180910390fd5b763d602d80600a3d3981f3363d3d373d3d3d363d730000008360601b60e81c176000526e5af43d82803e903d91602b57fd5bf38360781b176020526037600983f09050600073ffffffffffffffffffffffffffffffffffffffff168173ffffffffffffffffffffffffffffffffffffffff1603610a1a576040517fb06ebf3d00000000000000000000000000000000000000000000000000000000815260040160405180910390fd5b92915050565b60007ff0c57e16840df040f15088dc2f81fe391c3923bec73e23a9662efc9c229c6a0060001b905090565b610a53610b11565b610a89576040517fd7e6bcf800000000000000000000000000000000000000000000000000000000815260040160405180910390fd5b565b610a93610a4b565b600073ffffffffffffffffffffffffffffffffffffffff168173ffffffffffffffffffffffffffffffffffffffff1603610b055760006040517f1e4fbdf7000000000000000000000000000000000000000000000000000000008152600401610afc9190610e7d565b60405180910390fd5b610b0e816107f9565b50565b6000610b1b6108f8565b60000160089054906101000a900460ff16905090565b6000604051905090565b600080fd5b600080fd5b600073ffffffffffffffffffffffffffffffffffffffff82169050919050565b6000610b7082610b45565b9050919050565b610b8081610b65565b8114610b8b57600080fd5b50565b600081359050610b9d81610b77565b92915050565b600060208284031215610bb957610bb8610b3b565b5b6000610bc784828501610b8e565b91505092915050565b600081519050919050565b600082825260208201905092915050565b6000819050602082019050919050565b610c0581610b65565b82525050565b6000610c178383610bfc565b60208301905092915050565b6000602082019050919050565b6000610c3b82610bd0565b610c458185610bdb565b9350610c5083610bec565b8060005b83811015610c81578151610c688882610c0b565b9750610c7383610c23565b925050600181019050610c54565b5085935050505092915050565b60006020820190508181036000830152610ca88184610c30565b905092915050565b600080fd5b600080fd5b6000601f19601f8301169050919050565b7f4e487b7100000000000000000000000000000000000000000000000000000000600052604160045260246000fd5b610d0382610cba565b810181811067ffffffffffffffff82111715610d2257610d21610ccb565b5b80604052505050565b6000610d35610b31565b9050610d418282610cfa565b919050565b600067ffffffffffffffff821115610d6157610d60610ccb565b5b610d6a82610cba565b9050602081019050919050565b82818337600083830152505050565b6000610d99610d9484610d46565b610d2b565b905082815260208101848484011115610db557610db4610cb5565b5b610dc0848285610d77565b509392505050565b600082601f830112610ddd57610ddc610cb0565b5b8135610ded848260208601610d86565b91505092915050565b60008060408385031215610e0d57610e0c610b3b565b5b600083013567ffffffffffffffff811115610e2b57610e2a610b40565b5b610e3785828601610dc8565b925050602083013567ffffffffffffffff811115610e5857610e57610b40565b5b610e6485828601610dc8565b9150509250929050565b610e7781610b65565b82525050565b6000602082019050610e926000830184610e6e565b92915050565b6000819050919050565b610eab81610e98565b8114610eb657600080fd5b50565b600081359050610ec881610ea2565b92915050565b600060208284031215610ee457610ee3610b3b565b5b6000610ef284828501610eb9565b91505092915050565b600082825260208201905092915050565b7f496e76616c696420696d706c656d656e746174696f6e00000000000000000000600082015250565b6000610f42601683610efb565b9150610f4d82610f0c565b602082019050919050565b60006020820190508181036000830152610f7181610f35565b9050919050565b600081519050919050565b60005b83811015610fa1578082015181840152602081019050610f86565b60008484015250505050565b6000610fb882610f78565b610fc28185610efb565b9350610fd2818560208601610f83565b610fdb81610cba565b840191505092915050565b600060408201905081810360008301526110008185610fad565b905081810360208301526110148184610fad565b90509392505050565b6000819050919050565b600067ffffffffffffffff82169050919050565b6000819050919050565b600061106061105b6110568461101d565b61103b565b611027565b9050919050565b61107081611045565b82525050565b600060208201905061108b6000830184611067565b92915050565b61109a81610e98565b82525050565b60006040820190506110b56000830185611091565b6110c26020830184611091565b939250505056fea2646970667358221220f4eaf3a1c985b023276975ea7c9438763a8c5435546cdfaf83dccb5e7f47150764736f6c634300081c0033",
  "linkReferences": {},
  "deployedLinkReferences": {}
}