{
  "_format": "hh-sol-artifact-1",
  "contractName": "NFTBatch",
  "sourceName": "contracts/NFTBatch.sol",
  "abi": [
    {
      "inputs": [],
      "stateMutability": "nonpayable",
      "type": "constructor"
    },
    {
      "inputs": [
        {
          "internalType": "address",
          "name": "target",
          "type": "address"
        }
      ],
      "name": "AddressEmptyCode",
      "type": "error"
    },
    {
      "inputs": [],
      "name": "ApprovalCallerNotOwnerNorApproved",
      "type": "error"
    },
    {
      "inputs": [],
      "name": "ApprovalQueryForNonexistentToken",
      "type": "error"
    },
    {
      "inputs": [],
      "name": "BalanceQueryForZeroAddress",
      "type": "error"
    },
    {
      "inputs": [
        {
          "internalType": "address",
          "name": "implementation",
          "type": "address"
        }
      ],
      "name": "ERC1967InvalidImplementation",
      "type": "error"
    },
    {
      "inputs": [],
      "name": "ERC1967NonPayable",
      "type": "error"
    },
    {
      "inputs": [],
      "name": "FailedCall",
      "type": "error"
    },
    {
      "inputs": [],
      "name": "InvalidInitialization",
      "type": "error"
    },
    {
      "inputs": [],
      "name": "MintERC2309QuantityExceedsLimit",
      "type": "error"
    },
    {
      "inputs": [],
      "name": "MintToZeroAddress",
      "type": "error"
    },
    {
      "inputs": [],
      "name": "MintZeroQuantity",
      "type": "error"
    },
    {
      "inputs": [],
      "name": "NotCompatibleWithSpotMints",
      "type": "error"
    },
    {
      "inputs": [],
      "name": "NotInitializing",
      "type": "error"
    },
    {
      "inputs": [
        {
          "internalType": "address",
          "name": "caller",
          "type": "address"
        },
        {
          "internalType": "address",
          "name": "owner",
          "type": "address"
        }
      ],
      "name": "NotOwner",
      "type": "error"
    },
    {
      "inputs": [
        {
          "internalType": "address",
          "name": "owner",
          "type": "address"
        }
      ],
      "name": "OwnableInvalidOwner",
      "type": "error"
    },
    {
      "inputs": [
        {
          "internalType": "address",
          "name": "account",
          "type": "address"
        }
      ],
      "name": "OwnableUnauthorizedAccount",
      "type": "error"
    },
    {
      "inputs": [],
      "name": "OwnerQueryForNonexistentToken",
      "type": "error"
    },
    {
      "inputs": [],
      "name": "OwnershipNotInitializedForExtraData",
      "type": "error"
    },
    {
      "inputs": [],
      "name": "SequentialMintExceedsLimit",
      "type": "error"
    },
    {
      "inputs": [],
      "name": "SequentialUpToTooSmall",
      "type": "error"
    },
    {
      "inputs": [],
      "name": "SpotMintTokenIdTooSmall",
      "type": "error"
    },
    {
      "inputs": [],
      "name": "TokenAlreadyExists",
      "type": "error"
    },
    {
      "inputs": [],
      "name": "TransferCallerNotOwnerNorApproved",
      "type": "error"
    },
    {
      "inputs": [],
      "name": "TransferFromIncorrectOwner",
      "type": "error"
    },
    {
      "inputs": [],
      "name": "TransferToNonERC721ReceiverImplementer",
      "type": "error"
    },
    {
      "inputs": [],
      "name": "TransferToZeroAddress",
      "type": "error"
    },
    {
      "inputs": [],
      "name": "URIQueryForNonexistentToken",
      "type": "error"
    },
    {
      "inputs": [],
      "name": "UUPSUnauthorizedCallContext",
      "type": "error"
    },
    {
      "inputs": [
        {
          "internalType": "bytes32",
          "name": "slot",
          "type": "bytes32"
        }
      ],
      "name": "UUPSUnsupportedProxiableUUID",
      "type": "error"
    },
    {
      "anonymous": false,
      "inputs": [
        {
          "indexed": true,
          "internalType": "address",
          "name": "owner",
          "type": "address"
        },
        {
          "indexed": true,
          "internalType": "address",
          "name": "approved",
          "type": "address"
        },
        {
          "indexed": true,
          "internalType": "uint256",
          "name": "tokenId",
          "type": "uint256"
        }
      ],
      "name": "Approval",
      "type": "event"
    },
    {
      "anonymous": false,
      "inputs": [
        {
          "indexed": true,
          "internalType": "address",
          "name": "owner",
          "type": "address"
        },
        {
          "indexed": true,
          "internalType": "address",
          "name": "operator",
          "type": "address"
        },
        {
          "indexed": false,
          "internalType": "bool",
          "name": "approved",
          "type": "bool"
        }
      ],
      "name": "ApprovalForAll",
      "type": "event"
    },
    {
      "anonymous": false,
      "inputs": [
        {
          "indexed": false,
          "internalType": "address[]",
          "name": "receivers",
          "type": "address[]"
        },
        {
          "indexed": false,
          "internalType": "uint256[]",
          "name": "tokenIds",
          "type": "uint256[]"
        }
      ],
      "name": "BatchMinted",
      "type": "event"
    },
    {
      "anonymous": false,
      "inputs": [
        {
          "indexed": true,
          "internalType": "uint256",
          "name": "fromTokenId",
          "type": "uint256"
        },
        {
          "indexed": false,
          "internalType": "uint256",
          "name": "toTokenId",
          "type": "uint256"
        },
        {
          "indexed": true,
          "internalType": "address",
          "name": "from",
          "type": "address"
        },
        {
          "indexed": true,
          "internalType": "address",
          "name": "to",
          "type": "address"
        }
      ],
      "name": "ConsecutiveTransfer",
      "type": "event"
    },
    {
      "anonymous": false,
      "inputs": [
        {
          "indexed": false,
          "internalType": "uint64",
          "name": "version",
          "type": "uint64"
        }
      ],
      "name": "Initialized",
      "type": "event"
    },
    {
      "anonymous": false,
      "inputs": [
        {
          "indexed": true,
          "internalType": "address",
          "name": "to",
          "type": "address"
        },
        {
          "indexed": true,
          "internalType": "uint256",
          "name": "tokenId",
          "type": "uint256"
        }
      ],
      "name": "Minted",
      "type": "event"
    },
    {
      "anonymous": false,
      "inputs": [
        {
          "indexed": true,
          "internalType": "address",
          "name": "previousOwner",
          "type": "address"
        },
        {
          "indexed": true,
          "internalType": "address",
          "name": "newOwner",
          "type": "address"
        }
      ],
      "name": "OwnershipTransferred",
      "type": "event"
    },
    {
      "anonymous": false,
      "inputs": [
        {
          "indexed": false,
          "internalType": "uint256[]",
          "name": "tokenIds",
          "type": "uint256[]"
        },
        {
          "indexed": false,
          "internalType": "string[]",
          "name": "tokenuris",
          "type": "string[]"
        }
      ],
      "name": "ReplacedTokenUris",
      "type": "event"
    },
    {
      "anonymous": false,
      "inputs": [
        {
          "indexed": true,
          "internalType": "address",
          "name": "from",
          "type": "address"
        },
        {
          "indexed": true,
          "internalType": "address",
          "name": "to",
          "type": "address"
        },
        {
          "indexed": true,
          "internalType": "uint256",
          "name": "tokenId",
          "type": "uint256"
        }
      ],
      "name": "Transfer",
      "type": "event"
    },
    {
      "anonymous": false,
      "inputs": [
        {
          "indexed": true,
          "internalType": "address",
          "name": "implementation",
          "type": "address"
        }
      ],
      "name": "Upgraded",
      "type": "event"
    },
    {
      "inputs": [],
      "name": "UPGRADE_INTERFACE_VERSION",
      "outputs": [
        {
          "internalType": "string",
          "name": "",
          "type": "string"
        }
      ],
      "stateMutability": "view",
      "type": "function"
    },
    {
      "inputs": [
        {
          "internalType": "address",
          "name": "to",
          "type": "address"
        },
        {
          "internalType": "uint256",
          "name": "tokenId",
          "type": "uint256"
        }
      ],
      "name": "approve",
      "outputs": [],
      "stateMutability": "payable",
      "type": "function"
    },
    {
      "inputs": [
        {
          "internalType": "address",
          "name": "owner",
          "type": "address"
        }
      ],
      "name": "balanceOf",
      "outputs": [
        {
          "internalType": "uint256",
          "name": "",
          "type": "uint256"
        }
      ],
      "stateMutability": "view",
      "type": "function"
    },
    {
      "inputs": [
        {
          "internalType": "address",
          "name": "newOwner",
          "type": "address"
        }
      ],
      "name": "changeOwner",
      "outputs": [],
      "stateMutability": "nonpayable",
      "type": "function"
    },
    {
      "inputs": [
        {
          "internalType": "uint256",
          "name": "tokenId",
          "type": "uint256"
        }
      ],
      "name": "getApproved",
      "outputs": [
        {
          "internalType": "address",
          "name": "",
          "type": "address"
        }
      ],
      "stateMutability": "view",
      "type": "function"
    },
    {
      "inputs": [
        {
          "internalType": "string",
          "name": "name_",
          "type": "string"
        },
        {
          "internalType": "string",
          "name": "symbol_",
          "type": "string"
        }
      ],
      "name": "initialize",
      "outputs": [],
      "stateMutability": "nonpayable",
      "type": "function"
    },
    {
      "inputs": [
        {
          "internalType": "address",
          "name": "owner",
          "type": "address"
        },
        {
          "internalType": "address",
          "name": "operator",
          "type": "address"
        }
      ],
      "name": "isApprovedForAll",
      "outputs": [
        {
          "internalType": "bool",
          "name": "",
          "type": "bool"
        }
      ],
      "stateMutability": "view",
      "type": "function"
    },
    {
      "inputs": [
        {
          "internalType": "address",
          "name": "to",
          "type": "address"
        }
      ],
      "name": "mintTo",
      "outputs": [
        {
          "internalType": "uint256",
          "name": "",
          "type": "uint256"
        }
      ],
      "stateMutability": "nonpayable",
      "type": "function"
    },
    {
      "inputs": [
        {
          "internalType": "address[]",
          "name": "receivers",
          "type": "address[]"
        },
        {
          "internalType": "string[]",
          "name": "tokenUris",
          "type": "string[]"
        }
      ],
      "name": "mintToMany",
      "outputs": [],
      "stateMutability": "nonpayable",
      "type": "function"
    },
    {
      "inputs": [],
      "name": "name",
      "outputs": [
        {
          "internalType": "string",
          "name": "",
          "type": "string"
        }
      ],
      "stateMutability": "view",
      "type": "function"
    },
    {
      "inputs": [],
      "name": "nextTokenId",
      "outputs": [
        {
          "internalType": "uint256",
          "name": "",
          "type": "uint256"
        }
      ],
      "stateMutability": "view",
      "type": "function"
    },
    {
      "inputs": [],
      "name": "owner",
      "outputs": [
        {
          "internalType": "address",
          "name": "",
          "type": "address"
        }
      ],
      "stateMutability": "view",
      "type": "function"
    },
    {
      "inputs": [
        {
          "internalType": "uint256",
          "name": "tokenId",
          "type": "uint256"
        }
      ],
      "name": "ownerOf",
      "outputs": [
        {
          "internalType": "address",
          "name": "",
          "type": "address"
        }
      ],
      "stateMutability": "view",
      "type": "function"
    },
    {
      "inputs": [],
      "name": "proxiableUUID",
      "outputs": [
        {
          "internalType": "bytes32",
          "name": "",
          "type": "bytes32"
        }
      ],
      "stateMutability": "view",
      "type": "function"
    },
    {
      "inputs": [],
      "name": "renounceOwnership",
      "outputs": [],
      "stateMutability": "nonpayable",
      "type": "function"
    },
    {
      "inputs": [
        {
          "internalType": "address",
          "name": "from",
          "type": "address"
        },
        {
          "internalType": "address",
          "name": "to",
          "type": "address"
        },
        {
          "internalType": "uint256",
          "name": "tokenId",
          "type": "uint256"
        }
      ],
      "name": "safeTransferFrom",
      "outputs": [],
      "stateMutability": "payable",
      "type": "function"
    },
    {
      "inputs": [
        {
          "internalType": "address",
          "name": "from",
          "type": "address"
        },
        {
          "internalType": "address",
          "name": "to",
          "type": "address"
        },
        {
          "internalType": "uint256",
          "name": "tokenId",
          "type": "uint256"
        },
        {
          "internalType": "bytes",
          "name": "_data",
          "type": "bytes"
        }
      ],
      "name": "safeTransferFrom",
      "outputs": [],
      "stateMutability": "payable",
      "type": "function"
    },
    {
      "inputs": [
        {
          "internalType": "address",
          "name": "operator",
          "type": "address"
        },
        {
          "internalType": "bool",
          "name": "approved",
          "type": "bool"
        }
      ],
      "name": "setApprovalForAll",
      "outputs": [],
      "stateMutability": "nonpayable",
      "type": "function"
    },
    {
      "inputs": [
        {
          "internalType": "uint256[]",
          "name": "tokenIds",
          "type": "uint256[]"
        },
        {
          "internalType": "string[]",
          "name": "tokenUris",
          "type": "string[]"
        }
      ],
      "name": "setTokenURI",
      "outputs": [],
      "stateMutability": "nonpayable",
      "type": "function"
    },
    {
      "inputs": [
        {
          "internalType": "bytes4",
          "name": "interfaceId",
          "type": "bytes4"
        }
      ],
      "name": "supportsInterface",
      "outputs": [
        {
          "internalType": "bool",
          "name": "",
          "type": "bool"
        }
      ],
      "stateMutability": "view",
      "type": "function"
    },
    {
      "inputs": [],
      "name": "symbol",
      "outputs": [
        {
          "internalType": "string",
          "name": "",
          "type": "string"
        }
      ],
      "stateMutability": "view",
      "type": "function"
    },
    {
      "inputs": [
        {
          "internalType": "uint256",
          "name": "tokenId",
          "type": "uint256"
        }
      ],
      "name": "tokenURI",
      "outputs": [
        {
          "internalType": "string",
          "name": "",
          "type": "string"
        }
      ],
      "stateMutability": "view",
      "type": "function"
    },
    {
      "inputs": [],
      "name": "totalSupply",
      "outputs": [
        {
          "internalType": "uint256",
          "name": "result",
          "type": "uint256"
        }
      ],
      "stateMutability": "view",
      "type": "function"
    },
    {
      "inputs": [
        {
          "internalType": "address",
          "name": "from",
          "type": "address"
        },
        {
          "internalType": "address",
          "name": "to",
          "type": "address"
        },
        {
          "internalType": "uint256",
          "name": "tokenId",
          "type": "uint256"
        }
      ],
      "name": "transferFrom",
      "outputs": [],
      "stateMutability": "payable",
      "type": "function"
    },
    {
      "inputs": [
        {
          "internalType": "address",
          "name": "newOwner",
          "type": "address"
        }
      ],
      "name": "transferOwnership",
      "outputs": [],
      "stateMutability": "nonpayable",
      "type": "function"
    },
    {
      "inputs": [
        {
          "internalType": "address",
          "name": "newImplementation",
          "type": "address"
        },
        {
          "internalType": "bytes",
          "name": "data",
          "type": "bytes"
        }
      ],
      "name": "upgradeToAndCall",
      "outputs": [],
      "stateMutability": "payable",
      "type": "function"
    }
  ],
  "bytecode": "0x60a06040523073ffffffffffffffffffffffffffffffffffffffff1660809073ffffffffffffffffffffffffffffffffffffffff1681525034801561004357600080fd5b5061005261005760201b60201c565b6101de565b600061006761015b60201b60201c565b90508060000160089054906101000a900460ff16156100b2576040517ff92ee8a900000000000000000000000000000000000000000000000000000000815260040160405180910390fd5b67ffffffffffffffff80168160000160009054906101000a900467ffffffffffffffff1667ffffffffffffffff16146101585767ffffffffffffffff8160000160006101000a81548167ffffffffffffffff021916908367ffffffffffffffff1602179055507fc7f505b2f371ae2175ee4913f4499e1f2633a7b5936321eed1cdaeb6115181d267ffffffffffffffff60405161014f91906101c3565b60405180910390a15b50565b60008061016c61017560201b60201c565b90508091505090565b60007ff0c57e16840df040f15088dc2f81fe391c3923bec73e23a9662efc9c229c6a0060001b905090565b600067ffffffffffffffff82169050919050565b6101bd816101a0565b82525050565b60006020820190506101d860008301846101b4565b92915050565b60805161426061020760003960008181611dc801528181611e1d0152611fd801526142606000f3fe6080604052600436106101815760003560e01c8063755edd17116100d1578063aafb2d441161008a578063c617908b11610064578063c617908b1461052b578063c87b56dd14610554578063e985e9c514610591578063f2fde38b146105ce57610181565b8063aafb2d44146104bb578063ad3cb1cc146104e4578063b88d4fde1461050f57610181565b8063755edd17146103ab57806375794a3c146103e85780638da5cb5b1461041357806395d89b411461043e578063a22cb46514610469578063a6f9dae11461049257610181565b806342842e0e1161013e57806352d1902d1161011857806352d1902d146102ef5780636352211e1461031a57806370a0823114610357578063715018a61461039457610181565b806342842e0e1461028e5780634cd88b76146102aa5780634f1ef286146102d357610181565b806301ffc9a71461018657806306fdde03146101c3578063081812fc146101ee578063095ea7b31461022b57806318160ddd1461024757806323b872dd14610272575b600080fd5b34801561019257600080fd5b506101ad60048036038101906101a89190612a9d565b6105f7565b6040516101ba9190612ae5565b60405180910390f35b3480156101cf57600080fd5b506101d8610689565b6040516101e59190612b90565b60405180910390f35b3480156101fa57600080fd5b5061021560048036038101906102109190612be8565b610724565b6040516102229190612c56565b60405180910390f35b61024560048036038101906102409190612c9d565b61078b565b005b34801561025357600080fd5b5061025c61079b565b6040516102699190612cec565b60405180910390f35b61028c60048036038101906102879190612d07565b610803565b005b6102a860048036038101906102a39190612d07565b610afa565b005b3480156102b657600080fd5b506102d160048036038101906102cc9190612e8f565b610b1a565b005b6102ed60048036038101906102e89190612fa8565b610de0565b005b3480156102fb57600080fd5b50610304610dff565b604051610311919061301d565b60405180910390f35b34801561032657600080fd5b50610341600480360381019061033c9190612be8565b610e32565b60405161034e9190612c56565b60405180910390f35b34801561036357600080fd5b5061037e60048036038101906103799190613038565b610e44565b60405161038b9190612cec565b60405180910390f35b3480156103a057600080fd5b506103a9610ee4565b005b3480156103b757600080fd5b506103d260048036038101906103cd9190613038565b610ef8565b6040516103df9190612cec565b60405180910390f35b3480156103f457600080fd5b506103fd610f74565b60405161040a9190612cec565b60405180910390f35b34801561041f57600080fd5b50610428610f7a565b6040516104359190612c56565b60405180910390f35b34801561044a57600080fd5b50610453610fb2565b6040516104609190612b90565b60405180910390f35b34801561047557600080fd5b50610490600480360381019061048b9190613091565b61104d565b005b34801561049e57600080fd5b506104b960048036038101906104b49190613038565b611161565b005b3480156104c757600080fd5b506104e260048036038101906104dd9190613187565b6111e4565b005b3480156104f057600080fd5b506104f9611386565b6040516105069190612b90565b60405180910390f35b61052960048036038101906105249190613208565b6113bf565b005b34801561053757600080fd5b50610552600480360381019061054d91906132e1565b611411565b005b34801561056057600080fd5b5061057b60048036038101906105769190612be8565b611668565b6040516105889190612b90565b60405180910390f35b34801561059d57600080fd5b506105b860048036038101906105b39190613362565b611755565b6040516105c59190612ae5565b60405180910390f35b3480156105da57600080fd5b506105f560048036038101906105f09190613038565b6117f2565b005b60006301ffc9a760e01b827bffffffffffffffffffffffffffffffffffffffffffffffffffffffff1916148061065257506380ac58cd60e01b827bffffffffffffffffffffffffffffffffffffffffffffffffffffffff1916145b806106825750635b5e139f60e01b827bffffffffffffffffffffffffffffffffffffffffffffffffffffffff1916145b9050919050565b6060610693611878565b60020180546106a1906133d1565b80601f01602080910402602001604051908101604052809291908181526020018280546106cd906133d1565b801561071a5780601f106106ef5761010080835404028352916020019161071a565b820191906000526020600020905b8154815290600101906020018083116106fd57829003601f168201915b5050505050905090565b600061072f826118a5565b6107445761074363cf4700e460e01b61196c565b5b61074c611878565b600601600083815260200190815260200160002060000160009054906101000a900473ffffffffffffffffffffffffffffffffffffffff169050919050565b61079782826001611976565b5050565b60006107a5611aae565b6107ad611878565b600101546107b9611878565b60000154030390507fffffffffffffffffffffffffffffffffffffffffffffffffffffffffffffffff6107ea611ab3565b14610800576107f7611878565b60080154810190505b90565b600061080e82611adb565b905073ffffffffffffffffffffffffffffffffffffffff8473ffffffffffffffffffffffffffffffffffffffff161693508373ffffffffffffffffffffffffffffffffffffffff168173ffffffffffffffffffffffffffffffffffffffff16146108835761088263a114810060e01b61196c565b5b60008061088f84611c0f565b915091506108a581876108a0611c3f565b611c47565b6108d0576108ba866108b5611c3f565b611755565b6108cf576108ce6359c896be60e01b61196c565b5b5b6108dd8686866001611c8b565b80156108e857600082555b6108f0611878565b60050160008773ffffffffffffffffffffffffffffffffffffffff1673ffffffffffffffffffffffffffffffffffffffff168152602001908152602001600020600081546001900391905081905550610947611878565b60050160008673ffffffffffffffffffffffffffffffffffffffff1673ffffffffffffffffffffffffffffffffffffffff16815260200190815260200160002060008154600101919050819055506109c8856109a4888887611c91565b7c020000000000000000000000000000000000000000000000000000000017611cb9565b6109d0611878565b60040160008681526020019081526020016000208190555060007c0200000000000000000000000000000000000000000000000000000000841603610a725760006001850190506000610a21611878565b60040160008381526020019081526020016000205403610a7057610a43611878565b600001548114610a6f5783610a56611878565b6004016000838152602001908152602001600020819055505b5b505b600073ffffffffffffffffffffffffffffffffffffffff8673ffffffffffffffffffffffffffffffffffffffff161690508481887fddf252ad1be2c89b69c2b068fc378daa952ba7f163c4a11628f55a4df523b3ef600080a460008103610ae457610ae363ea553b3460e01b61196c565b5b610af18787876001611ce4565b50505050505050565b610b15838383604051806020016040528060008152506113bf565b505050565b610b22611cea565b60000160019054906101000a900460ff16610b5657610b3f611cea565b60000160009054906101000a900460ff1615610b5f565b610b5e611d17565b5b610b9e576040517f08c379a0000000000000000000000000000000000000000000000000000000008152600401610b9590613474565b60405180910390fd5b6000610ba8611cea565b60000160019054906101000a900460ff161590508015610c0b576001610bcc611cea565b60000160016101000a81548160ff0219169083151502179055506001610bf0611cea565b60000160006101000a81548160ff0219169083151502179055505b6000610c15611d2e565b905060008160000160089054906101000a900460ff1615905060008260000160009054906101000a900467ffffffffffffffff1690506000808267ffffffffffffffff16148015610c635750825b9050600060018367ffffffffffffffff16148015610c98575060003073ffffffffffffffffffffffffffffffffffffffff163b145b905081158015610ca6575080155b15610cdd576040517ff92ee8a900000000000000000000000000000000000000000000000000000000815260040160405180910390fd5b60018560000160006101000a81548167ffffffffffffffff021916908367ffffffffffffffff1602179055508315610d2d5760018560000160086101000a81548160ff0219169083151502179055505b610d378888611d42565b610d4033611da8565b610d48611dbc565b600080819055508315610dab5760008560000160086101000a81548160ff0219169083151502179055507fc7f505b2f371ae2175ee4913f4499e1f2633a7b5936321eed1cdaeb6115181d26001604051610da291906134ed565b60405180910390a15b50505050508015610ddb576000610dc0611cea565b60000160016101000a81548160ff0219169083151502179055505b505050565b610de8611dc6565b610df182611eac565b610dfb8282611eb7565b5050565b6000610e09611fd6565b7f360894a13ba1a3210667c828492db98dca3e2076cc3735a920a3ca505d382bbc60001b905090565b6000610e3d82611adb565b9050919050565b60008073ffffffffffffffffffffffffffffffffffffffff168273ffffffffffffffffffffffffffffffffffffffff1603610e8a57610e89638f4eb60460e01b61196c565b5b67ffffffffffffffff610e9b611878565b60050160008473ffffffffffffffffffffffffffffffffffffffff1673ffffffffffffffffffffffffffffffffffffffff16815260200190815260200160002054169050919050565b610eec61205d565b610ef660006120e4565b565b6000610f0261205d565b6000806000815480929190610f1690613537565b919050559050610f278360016121bb565b808373ffffffffffffffffffffffffffffffffffffffff167f30385c845b448a36257a6a1716e6ad2e1bc2cbe333cde1e69fe849ad6511adfe60405160405180910390a380915050919050565b60005481565b600080610f85612366565b90508060000160009054906101000a900473ffffffffffffffffffffffffffffffffffffffff1691505090565b6060610fbc611878565b6003018054610fca906133d1565b80601f0160208091040260200160405190810160405280929190818152602001828054610ff6906133d1565b80156110435780601f1061101857610100808354040283529160200191611043565b820191906000526020600020905b81548152906001019060200180831161102657829003601f168201915b5050505050905090565b80611056611878565b6007016000611063611c3f565b73ffffffffffffffffffffffffffffffffffffffff1673ffffffffffffffffffffffffffffffffffffffff16815260200190815260200160002060008473ffffffffffffffffffffffffffffffffffffffff1673ffffffffffffffffffffffffffffffffffffffff16815260200190815260200160002060006101000a81548160ff0219169083151502179055508173ffffffffffffffffffffffffffffffffffffffff16611110611c3f565b73ffffffffffffffffffffffffffffffffffffffff167f17307eab39ab6107e8899845ad3d59bd9653f200f220920489ca2b5937696c31836040516111559190612ae5565b60405180910390a35050565b61116961205d565b600073ffffffffffffffffffffffffffffffffffffffff168173ffffffffffffffffffffffffffffffffffffffff16036111d8576040517f08c379a00000000000000000000000000000000000000000000000000000000081526004016111cf906135cb565b60405180910390fd5b6111e1816120e4565b50565b6111ec61205d565b600084849050905060008111611237576040517f08c379a000000000000000000000000000000000000000000000000000000000815260040161122e90613637565b60405180910390fd5b82829050811461127c576040517f08c379a0000000000000000000000000000000000000000000000000000000008152600401611273906136a3565b60405180910390fd5b60005b8181101561134157600086868381811061129c5761129b6136c3565b5b9050602002013590506112ae816118a5565b6112ed576040517f08c379a00000000000000000000000000000000000000000000000000000000081526004016112e49061373e565b60405180910390fd5b848483818110611300576112ff6136c3565b5b9050602002810190611312919061376d565b60016000848152602001908152602001600020918261133292919061397d565b5050808060010191505061127f565b507f536cf9bb2bea380ec8c359977f31714ced38d6ca101c9f0e188182d64b4354c9858585856040516113779493929190613c2c565b60405180910390a15050505050565b6040518060400160405280600581526020017f352e302e3000000000000000000000000000000000000000000000000000000081525081565b6113ca848484610803565b60008373ffffffffffffffffffffffffffffffffffffffff163b1461140b576113f58484848461238e565b61140a5761140963d1a57ed660e01b61196c565b5b5b50505050565b60008484905090506000811161145c576040517f08c379a000000000000000000000000000000000000000000000000000000000815260040161145390613cb3565b60405180910390fd5b8282905081146114a1576040517f08c379a000000000000000000000000000000000000000000000000000000000815260040161149890613d45565b60405180910390fd5b60008167ffffffffffffffff8111156114bd576114bc612d64565b5b6040519080825280602002602001820160405280156114eb5781602001602082028036833780820191505090505b50905060005b8281101561162457600080600081548092919061150d90613537565b91905055905080838381518110611527576115266136c3565b5b602002602001018181525050611565888884818110611549576115486136c3565b5b905060200201602081019061155e9190613038565b60016121bb565b858583818110611578576115776136c3565b5b905060200281019061158a919061376d565b6001600084815260200190815260200160002091826115aa92919061397d565b50808888848181106115bf576115be6136c3565b5b90506020020160208101906115d49190613038565b73ffffffffffffffffffffffffffffffffffffffff167f30385c845b448a36257a6a1716e6ad2e1bc2cbe333cde1e69fe849ad6511adfe60405160405180910390a35080806001019150506114f1565b507f46c094f2f2404297a48a7c4d47697ed07cd7dcb542f35259c65ace5c1f68e1db86868360405161165893929190613ed5565b60405180910390a1505050505050565b6060611673826118a5565b6116b2576040517f08c379a00000000000000000000000000000000000000000000000000000000081526004016116a99061373e565b60405180910390fd5b6001600083815260200190815260200160002080546116d0906133d1565b80601f01602080910402602001604051908101604052809291908181526020018280546116fc906133d1565b80156117495780601f1061171e57610100808354040283529160200191611749565b820191906000526020600020905b81548152906001019060200180831161172c57829003601f168201915b50505050509050919050565b600061175f611878565b60070160008473ffffffffffffffffffffffffffffffffffffffff1673ffffffffffffffffffffffffffffffffffffffff16815260200190815260200160002060008373ffffffffffffffffffffffffffffffffffffffff1673ffffffffffffffffffffffffffffffffffffffff16815260200190815260200160002060009054906101000a900460ff16905092915050565b6117fa61205d565b600073ffffffffffffffffffffffffffffffffffffffff168173ffffffffffffffffffffffffffffffffffffffff160361186c5760006040517f1e4fbdf70000000000000000000000000000000000000000000000000000000081526004016118639190612c56565b60405180910390fd5b611875816120e4565b50565b6000807f2569078dfb4b0305704d3008e7403993ae9601b85f7ae5e742de3de8f8011c4090508091505090565b6000816118b0611aae565b11611966576118bd611ab3565b8211156118f0576118e96118cf611878565b6004016000848152602001908152602001600020546124bd565b9050611967565b6118f8611878565b600001548210156119655760005b6000611910611878565b6004016000858152602001908152602001600020549150810361193e578261193790613f0e565b9250611906565b60007c01000000000000000000000000000000000000000000000000000000008216149150505b5b5b919050565b8060005260046000fd5b600061198183610e32565b90508180156119c357508073ffffffffffffffffffffffffffffffffffffffff166119aa611c3f565b73ffffffffffffffffffffffffffffffffffffffff1614155b156119ef576119d9816119d4611c3f565b611755565b6119ee576119ed63cfb3b94260e01b61196c565b5b5b836119f8611878565b600601600085815260200190815260200160002060000160006101000a81548173ffffffffffffffffffffffffffffffffffffffff021916908373ffffffffffffffffffffffffffffffffffffffff160217905550828473ffffffffffffffffffffffffffffffffffffffff168273ffffffffffffffffffffffffffffffffffffffff167f8c5be1e5ebec7d5bd14f71427d1e84f3dd0314c0f7b2291e5b200ac8c7c3b92560405160405180910390a450505050565b600090565b60007fffffffffffffffffffffffffffffffffffffffffffffffffffffffffffffffff905090565b600081611ae6611aae565b11611bf957611af3611878565b6004016000838152602001908152602001600020549050611b12611ab3565b821115611b3757611b22816124bd565b611c0a57611b3663df2d9b4260e01b61196c565b5b60008103611bd057611b47611878565b600001548210611b6257611b6163df2d9b4260e01b61196c565b5b5b611b6b611878565b6004016000836001900393508381526020019081526020016000205490506000810315611bcb5760007c010000000000000000000000000000000000000000000000000000000082160315611c0a57611bca63df2d9b4260e01b61196c565b5b611b63565b60007c010000000000000000000000000000000000000000000000000000000082160315611c0a575b611c0963df2d9b4260e01b61196c565b5b919050565b6000806000611c1c611878565b600601600085815260200190815260200160002090508092508254915050915091565b600033905090565b600073ffffffffffffffffffffffffffffffffffffffff8316925073ffffffffffffffffffffffffffffffffffffffff821691508382148383141790509392505050565b50505050565b60008060e883901c905060e8611ca88686846124fe565b62ffffff16901b9150509392505050565b600073ffffffffffffffffffffffffffffffffffffffff83169250814260a01b178317905092915050565b50505050565b6000807fee151c8401928dc223602bb187aff91b9a56c7cae5476ef1b3287b085a16c85f90508091505090565b6000803090506000813b9050600081149250505090565b600080611d39612507565b90508091505090565b611d4a611cea565b60000160019054906101000a900460ff16611d9a576040517f08c379a0000000000000000000000000000000000000000000000000000000008152600401611d9190613fa9565b60405180910390fd5b611da48282612532565b5050565b611db06125fe565b611db98161263e565b50565b611dc46125fe565b565b7f000000000000000000000000000000000000000000000000000000000000000073ffffffffffffffffffffffffffffffffffffffff163073ffffffffffffffffffffffffffffffffffffffff161480611e7357507f000000000000000000000000000000000000000000000000000000000000000073ffffffffffffffffffffffffffffffffffffffff16611e5a6126c4565b73ffffffffffffffffffffffffffffffffffffffff1614155b15611eaa576040517fe07c8dba00000000000000000000000000000000000000000000000000000000815260040160405180910390fd5b565b611eb461205d565b50565b8173ffffffffffffffffffffffffffffffffffffffff166352d1902d6040518163ffffffff1660e01b8152600401602060405180830381865afa925050508015611f1f57506040513d601f19601f82011682018060405250810190611f1c9190613ff5565b60015b611f6057816040517f4c9c8ce3000000000000000000000000000000000000000000000000000000008152600401611f579190612c56565b60405180910390fd5b7f360894a13ba1a3210667c828492db98dca3e2076cc3735a920a3ca505d382bbc60001b8114611fc757806040517faa1d49a4000000000000000000000000000000000000000000000000000000008152600401611fbe919061301d565b60405180910390fd5b611fd1838361271b565b505050565b7f000000000000000000000000000000000000000000000000000000000000000073ffffffffffffffffffffffffffffffffffffffff163073ffffffffffffffffffffffffffffffffffffffff161461205b576040517fe07c8dba00000000000000000000000000000000000000000000000000000000815260040160405180910390fd5b565b61206561278e565b73ffffffffffffffffffffffffffffffffffffffff16612083610f7a565b73ffffffffffffffffffffffffffffffffffffffff16146120e2576120a661278e565b6040517f118cdaa70000000000000000000000000000000000000000000000000000000081526004016120d99190612c56565b60405180910390fd5b565b60006120ee612366565b905060008160000160009054906101000a900473ffffffffffffffffffffffffffffffffffffffff169050828260000160006101000a81548173ffffffffffffffffffffffffffffffffffffffff021916908373ffffffffffffffffffffffffffffffffffffffff1602179055508273ffffffffffffffffffffffffffffffffffffffff168173ffffffffffffffffffffffffffffffffffffffff167f8be0079c531659141344cd1fd0a4f28419497f9722a3daafe3b4186f6b6457e060405160405180910390a3505050565b60006121c5611878565b600001549050600082036121e4576121e363b562e8dd60e01b61196c565b5b6121f16000848385611c8b565b612211836122026000866000611c91565b61220b85612796565b17611cb9565b612219611878565b600401600083815260200190815260200160002081905550600160406001901b178202612244611878565b60050160008573ffffffffffffffffffffffffffffffffffffffff1673ffffffffffffffffffffffffffffffffffffffff16815260200190815260200160002060008282540192505081905550600073ffffffffffffffffffffffffffffffffffffffff8473ffffffffffffffffffffffffffffffffffffffff16169050600081036122db576122da632e07630060e01b61196c565b5b6000838301905060008390506122ef611ab3565b60018303111561230a576123096381647e3a60e01b61196c565b5b5b808360007fddf252ad1be2c89b69c2b068fc378daa952ba7f163c4a11628f55a4df523b3ef600080a481816001019150810361230b578161234a611878565b600001819055505050506123616000848385611ce4565b505050565b60007f9016d09d72d40fdae2fd8ceac6b6234c7706214fd39c1cd1e609a0528c199300905090565b60008373ffffffffffffffffffffffffffffffffffffffff1663150b7a026123b4611c3f565b8786866040518563ffffffff1660e01b81526004016123d69493929190614077565b6020604051808303816000875af192505050801561241257506040513d601f19601f8201168201806040525081019061240f91906140d8565b60015b61246a573d8060008114612442576040519150601f19603f3d011682016040523d82523d6000602084013e612447565b606091505b5060008151036124625761246163d1a57ed660e01b61196c565b5b805181602001fd5b63150b7a0260e01b7bffffffffffffffffffffffffffffffffffffffffffffffffffffffff1916817bffffffffffffffffffffffffffffffffffffffffffffffffffffffff191614915050949350505050565b60007c0100000000000000000000000000000000000000000000000000000000821673ffffffffffffffffffffffffffffffffffffffff8316119050919050565b60009392505050565b60007ff0c57e16840df040f15088dc2f81fe391c3923bec73e23a9662efc9c229c6a0060001b905090565b61253a611cea565b60000160019054906101000a900460ff1661258a576040517f08c379a000000000000000000000000000000000000000000000000000000000815260040161258190613fa9565b60405180910390fd5b81612593611878565b60020190816125a29190614105565b50806125ac611878565b60030190816125bb9190614105565b506125c4611aae565b6125cc611878565b600001819055506125db611aae565b6125e3611ab3565b10156125fa576125f963fed8210f60e01b61196c565b5b5050565b6126066127a6565b61263c576040517fd7e6bcf800000000000000000000000000000000000000000000000000000000815260040160405180910390fd5b565b6126466125fe565b600073ffffffffffffffffffffffffffffffffffffffff168173ffffffffffffffffffffffffffffffffffffffff16036126b85760006040517f1e4fbdf70000000000000000000000000000000000000000000000000000000081526004016126af9190612c56565b60405180910390fd5b6126c1816120e4565b50565b60006126f27f360894a13ba1a3210667c828492db98dca3e2076cc3735a920a3ca505d382bbc60001b6127c6565b60000160009054906101000a900473ffffffffffffffffffffffffffffffffffffffff16905090565b612724826127d0565b8173ffffffffffffffffffffffffffffffffffffffff167fbc7cd75a20ee27fd9adebab32041f755214dbc6bffa90cc0225b39da2e5c2d3b60405160405180910390a26000815111156127815761277b828261289d565b5061278a565b612789612921565b5b5050565b600033905090565b60006001821460e11b9050919050565b60006127b0611d2e565b60000160089054906101000a900460ff16905090565b6000819050919050565b60008173ffffffffffffffffffffffffffffffffffffffff163b0361282c57806040517f4c9c8ce30000000000000000000000000000000000000000000000000000000081526004016128239190612c56565b60405180910390fd5b806128597f360894a13ba1a3210667c828492db98dca3e2076cc3735a920a3ca505d382bbc60001b6127c6565b60000160006101000a81548173ffffffffffffffffffffffffffffffffffffffff021916908373ffffffffffffffffffffffffffffffffffffffff16021790555050565b60606000808473ffffffffffffffffffffffffffffffffffffffff16846040516128c79190614213565b600060405180830381855af49150503d8060008114612902576040519150601f19603f3d011682016040523d82523d6000602084013e612907565b606091505b509150915061291785838361295e565b9250505092915050565b600034111561295c576040517fb398979f00000000000000000000000000000000000000000000000000000000815260040160405180910390fd5b565b6060826129735761296e826129ed565b6129e5565b6000825114801561299b575060008473ffffffffffffffffffffffffffffffffffffffff163b145b156129dd57836040517f9996b3150000000000000000000000000000000000000000000000000000000081526004016129d49190612c56565b60405180910390fd5b8190506129e6565b5b9392505050565b6000815111156129ff57805160208201fd5b6040517fd6bda27500000000000000000000000000000000000000000000000000000000815260040160405180910390fd5b6000604051905090565b600080fd5b600080fd5b60007fffffffff0000000000000000000000000000000000000000000000000000000082169050919050565b612a7a81612a45565b8114612a8557600080fd5b50565b600081359050612a9781612a71565b92915050565b600060208284031215612ab357612ab2612a3b565b5b6000612ac184828501612a88565b91505092915050565b60008115159050919050565b612adf81612aca565b82525050565b6000602082019050612afa6000830184612ad6565b92915050565b600081519050919050565b600082825260208201905092915050565b60005b83811015612b3a578082015181840152602081019050612b1f565b60008484015250505050565b6000601f19601f8301169050919050565b6000612b6282612b00565b612b6c8185612b0b565b9350612b7c818560208601612b1c565b612b8581612b46565b840191505092915050565b60006020820190508181036000830152612baa8184612b57565b905092915050565b6000819050919050565b612bc581612bb2565b8114612bd057600080fd5b50565b600081359050612be281612bbc565b92915050565b600060208284031215612bfe57612bfd612a3b565b5b6000612c0c84828501612bd3565b91505092915050565b600073ffffffffffffffffffffffffffffffffffffffff82169050919050565b6000612c4082612c15565b9050919050565b612c5081612c35565b82525050565b6000602082019050612c6b6000830184612c47565b92915050565b612c7a81612c35565b8114612c8557600080fd5b50565b600081359050612c9781612c71565b92915050565b60008060408385031215612cb457612cb3612a3b565b5b6000612cc285828601612c88565b9250506020612cd385828601612bd3565b9150509250929050565b612ce681612bb2565b82525050565b6000602082019050612d016000830184612cdd565b92915050565b600080600060608486031215612d2057612d1f612a3b565b5b6000612d2e86828701612c88565b9350506020612d3f86828701612c88565b9250506040612d5086828701612bd3565b9150509250925092565b600080fd5b600080fd5b7f4e487b7100000000000000000000000000000000000000000000000000000000600052604160045260246000fd5b612d9c82612b46565b810181811067ffffffffffffffff82111715612dbb57612dba612d64565b5b80604052505050565b6000612dce612a31565b9050612dda8282612d93565b919050565b600067ffffffffffffffff821115612dfa57612df9612d64565b5b612e0382612b46565b9050602081019050919050565b82818337600083830152505050565b6000612e32612e2d84612ddf565b612dc4565b905082815260208101848484011115612e4e57612e4d612d5f565b5b612e59848285612e10565b509392505050565b600082601f830112612e7657612e75612d5a565b5b8135612e86848260208601612e1f565b91505092915050565b60008060408385031215612ea657612ea5612a3b565b5b600083013567ffffffffffffffff811115612ec457612ec3612a40565b5b612ed085828601612e61565b925050602083013567ffffffffffffffff811115612ef157612ef0612a40565b5b612efd85828601612e61565b9150509250929050565b600067ffffffffffffffff821115612f2257612f21612d64565b5b612f2b82612b46565b9050602081019050919050565b6000612f4b612f4684612f07565b612dc4565b905082815260208101848484011115612f6757612f66612d5f565b5b612f72848285612e10565b509392505050565b600082601f830112612f8f57612f8e612d5a565b5b8135612f9f848260208601612f38565b91505092915050565b60008060408385031215612fbf57612fbe612a3b565b5b6000612fcd85828601612c88565b925050602083013567ffffffffffffffff811115612fee57612fed612a40565b5b612ffa85828601612f7a565b9150509250929050565b6000819050919050565b61301781613004565b82525050565b6000602082019050613032600083018461300e565b92915050565b60006020828403121561304e5761304d612a3b565b5b600061305c84828501612c88565b91505092915050565b61306e81612aca565b811461307957600080fd5b50565b60008135905061308b81613065565b92915050565b600080604083850312156130a8576130a7612a3b565b5b60006130b685828601612c88565b92505060206130c78582860161307c565b9150509250929050565b600080fd5b600080fd5b60008083601f8401126130f1576130f0612d5a565b5b8235905067ffffffffffffffff81111561310e5761310d6130d1565b5b60208301915083602082028301111561312a576131296130d6565b5b9250929050565b60008083601f84011261314757613146612d5a565b5b8235905067ffffffffffffffff811115613164576131636130d1565b5b6020830191508360208202830111156131805761317f6130d6565b5b9250929050565b600080600080604085870312156131a1576131a0612a3b565b5b600085013567ffffffffffffffff8111156131bf576131be612a40565b5b6131cb878288016130db565b9450945050602085013567ffffffffffffffff8111156131ee576131ed612a40565b5b6131fa87828801613131565b925092505092959194509250565b6000806000806080858703121561322257613221612a3b565b5b600061323087828801612c88565b945050602061324187828801612c88565b935050604061325287828801612bd3565b925050606085013567ffffffffffffffff81111561327357613272612a40565b5b61327f87828801612f7a565b91505092959194509250565b60008083601f8401126132a1576132a0612d5a565b5b8235905067ffffffffffffffff8111156132be576132bd6130d1565b5b6020830191508360208202830111156132da576132d96130d6565b5b9250929050565b600080600080604085870312156132fb576132fa612a3b565b5b600085013567ffffffffffffffff81111561331957613318612a40565b5b6133258782880161328b565b9450945050602085013567ffffffffffffffff81111561334857613347612a40565b5b61335487828801613131565b925092505092959194509250565b6000806040838503121561337957613378612a3b565b5b600061338785828601612c88565b925050602061339885828601612c88565b9150509250929050565b7f4e487b7100000000000000000000000000000000000000000000000000000000600052602260045260246000fd5b600060028204905060018216806133e957607f821691505b6020821081036133fc576133fb6133a2565b5b50919050565b7f455243373231415f5f496e697469616c697a61626c653a20636f6e747261637460008201527f20697320616c726561647920696e697469616c697a6564000000000000000000602082015250565b600061345e603783612b0b565b915061346982613402565b604082019050919050565b6000602082019050818103600083015261348d81613451565b9050919050565b6000819050919050565b600067ffffffffffffffff82169050919050565b6000819050919050565b60006134d76134d26134cd84613494565b6134b2565b61349e565b9050919050565b6134e7816134bc565b82525050565b600060208201905061350260008301846134de565b92915050565b7f4e487b7100000000000000000000000000000000000000000000000000000000600052601160045260246000fd5b600061354282612bb2565b91507fffffffffffffffffffffffffffffffffffffffffffffffffffffffffffffffff820361357457613573613508565b5b600182019050919050565b7f496e76616c6964206e6577206f776e6572000000000000000000000000000000600082015250565b60006135b5601183612b0b565b91506135c08261357f565b602082019050919050565b600060208201905081810360008301526135e4816135a8565b9050919050565b7f4e6f20746f6b656e496473000000000000000000000000000000000000000000600082015250565b6000613621600b83612b0b565b915061362c826135eb565b602082019050919050565b6000602082019050818103600083015261365081613614565b9050919050565b7f4c656e677468206d69736d617463680000000000000000000000000000000000600082015250565b600061368d600f83612b0b565b915061369882613657565b602082019050919050565b600060208201905081810360008301526136bc81613680565b9050919050565b7f4e487b7100000000000000000000000000000000000000000000000000000000600052603260045260246000fd5b7f546f6b656e20646f6573206e6f74206578697374000000000000000000000000600082015250565b6000613728601483612b0b565b9150613733826136f2565b602082019050919050565b600060208201905081810360008301526137578161371b565b9050919050565b600080fd5b600080fd5b600080fd5b6000808335600160200384360303811261378a5761378961375e565b5b80840192508235915067ffffffffffffffff8211156137ac576137ab613763565b5b6020830192506001820236038313156137c8576137c7613768565b5b509250929050565b600082905092915050565b60008190508160005260206000209050919050565b60006020601f8301049050919050565b600082821b905092915050565b60006008830261383d7fffffffffffffffffffffffffffffffffffffffffffffffffffffffffffffffff82613800565b6138478683613800565b95508019841693508086168417925050509392505050565b600061387a61387561387084612bb2565b6134b2565b612bb2565b9050919050565b6000819050919050565b6138948361385f565b6138a86138a082613881565b84845461380d565b825550505050565b600090565b6138bd6138b0565b6138c881848461388b565b505050565b5b818110156138ec576138e16000826138b5565b6001810190506138ce565b5050565b601f82111561393157613902816137db565b61390b846137f0565b8101602085101561391a578190505b61392e613926856137f0565b8301826138cd565b50505b505050565b600082821c905092915050565b600061395460001984600802613936565b1980831691505092915050565b600061396d8383613943565b9150826002028217905092915050565b61398783836137d0565b67ffffffffffffffff8111156139a05761399f612d64565b5b6139aa82546133d1565b6139b58282856138f0565b6000601f8311600181146139e457600084156139d2578287013590505b6139dc8582613961565b865550613a44565b601f1984166139f2866137db565b60005b82811015613a1a578489013582556001820191506020850194506020810190506139f5565b86831015613a375784890135613a33601f891682613943565b8355505b6001600288020188555050505b50505050505050565b600082825260208201905092915050565b600080fd5b82818337505050565b6000613a788385613a4d565b93507f07ffffffffffffffffffffffffffffffffffffffffffffffffffffffffffffff831115613aab57613aaa613a5e565b5b602083029250613abc838584613a63565b82840190509392505050565b600082825260208201905092915050565b6000819050919050565b600082825260208201905092915050565b6000613b008385613ae3565b9350613b0d838584612e10565b613b1683612b46565b840190509392505050565b6000613b2e848484613af4565b90509392505050565b600080fd5b600080fd5b600080fd5b60008083356001602003843603038112613b6357613b62613b41565b5b83810192508235915060208301925067ffffffffffffffff821115613b8b57613b8a613b37565b5b600182023603831315613ba157613ba0613b3c565b5b509250929050565b6000602082019050919050565b6000613bc28385613ac8565b935083602084028501613bd484613ad9565b8060005b87811015613c1a578484038952613bef8284613b46565b613bfa868284613b21565b9550613c0584613ba9565b935060208b019a505050600181019050613bd8565b50829750879450505050509392505050565b60006040820190508181036000830152613c47818688613a6c565b90508181036020830152613c5c818486613bb6565b905095945050505050565b7f4e6f207265636569766572730000000000000000000000000000000000000000600082015250565b6000613c9d600c83612b0b565b9150613ca882613c67565b602082019050919050565b60006020820190508181036000830152613ccc81613c90565b9050919050565b7f52656365697665727320616e6420746f6b656e55726973206c656e677468206d60008201527f69736d6174636800000000000000000000000000000000000000000000000000602082015250565b6000613d2f602783612b0b565b9150613d3a82613cd3565b604082019050919050565b60006020820190508181036000830152613d5e81613d22565b9050919050565b600082825260208201905092915050565b6000819050919050565b613d8981612c35565b82525050565b6000613d9b8383613d80565b60208301905092915050565b6000613db66020840184612c88565b905092915050565b6000602082019050919050565b6000613dd78385613d65565b9350613de282613d76565b8060005b85811015613e1b57613df88284613da7565b613e028882613d8f565b9750613e0d83613dbe565b925050600181019050613de6565b5085925050509392505050565b600081519050919050565b6000819050602082019050919050565b613e4c81612bb2565b82525050565b6000613e5e8383613e43565b60208301905092915050565b6000602082019050919050565b6000613e8282613e28565b613e8c8185613a4d565b9350613e9783613e33565b8060005b83811015613ec8578151613eaf8882613e52565b9750613eba83613e6a565b925050600181019050613e9b565b5085935050505092915050565b60006040820190508181036000830152613ef0818587613dcb565b90508181036020830152613f048184613e77565b9050949350505050565b6000613f1982612bb2565b915060008203613f2c57613f2b613508565b5b600182039050919050565b7f455243373231415f5f496e697469616c697a61626c653a20636f6e747261637460008201527f206973206e6f7420696e697469616c697a696e67000000000000000000000000602082015250565b6000613f93603483612b0b565b9150613f9e82613f37565b604082019050919050565b60006020820190508181036000830152613fc281613f86565b9050919050565b613fd281613004565b8114613fdd57600080fd5b50565b600081519050613fef81613fc9565b92915050565b60006020828403121561400b5761400a612a3b565b5b600061401984828501613fe0565b91505092915050565b600081519050919050565b600082825260208201905092915050565b600061404982614022565b614053818561402d565b9350614063818560208601612b1c565b61406c81612b46565b840191505092915050565b600060808201905061408c6000830187612c47565b6140996020830186612c47565b6140a66040830185612cdd565b81810360608301526140b8818461403e565b905095945050505050565b6000815190506140d281612a71565b92915050565b6000602082840312156140ee576140ed612a3b565b5b60006140fc848285016140c3565b91505092915050565b61410e82612b00565b67ffffffffffffffff81111561412757614126612d64565b5b61413182546133d1565b61413c8282856138f0565b600060209050601f83116001811461416f576000841561415d578287015190505b6141678582613961565b8655506141cf565b601f19841661417d866137db565b60005b828110156141a557848901518255600182019150602085019450602081019050614180565b868310156141c257848901516141be601f891682613943565b8355505b6001600288020188555050505b505050505050565b600081905092915050565b60006141ed82614022565b6141f781856141d7565b9350614207818560208601612b1c565b80840191505092915050565b600061421f82846141e2565b91508190509291505056fea264697066735822122024cd5bb1320a8a5379c32780fd6858e0bc55640b346dbc62fe6c2724fbbb9d2264736f6c634300081c0033",
  "linkReferences": {},
  "deployedLinkReferences": {}
}