{
  "_format": "hh-sol-artifact-1",
  "contractName": "NFTBatch",
  "sourceName": "contracts/NFTBatch.sol",
  "abi": [
    {
      "inputs": [],
      "stateMutability": "nonpayable",
      "type": "constructor"
    },
    {
      "inputs": [
        {
          "internalType": "address",
          "name": "target",
          "type": "address"
        }
      ],
      "name": "AddressEmptyCode",
      "type": "error"
    },
    {
      "inputs": [],
      "name": "ApprovalCallerNotOwnerNorApproved",
      "type": "error"
    },
    {
      "inputs": [],
      "name": "ApprovalQueryForNonexistentToken",
      "type": "error"
    },
    {
      "inputs": [],
      "name": "BalanceQueryForZeroAddress",
      "type": "error"
    },
    {
      "inputs": [
        {
          "internalType": "address",
          "name": "implementation",
          "type": "address"
        }
      ],
      "name": "ERC1967InvalidImplementation",
      "type": "error"
    },
    {
      "inputs": [],
      "name": "ERC1967NonPayable",
      "type": "error"
    },
    {
      "inputs": [],
      "name": "FailedCall",
      "type": "error"
    },
    {
      "inputs": [],
      "name": "InvalidInitialization",
      "type": "error"
    },
    {
      "inputs": [],
      "name": "MintERC2309QuantityExceedsLimit",
      "type": "error"
    },
    {
      "inputs": [],
      "name": "MintToZeroAddress",
      "type": "error"
    },
    {
      "inputs": [],
      "name": "MintZeroQuantity",
      "type": "error"
    },
    {
      "inputs": [],
      "name": "NotCompatibleWithSpotMints",
      "type": "error"
    },
    {
      "inputs": [],
      "name": "NotInitializing",
      "type": "error"
    },
    {
      "inputs": [
        {
          "internalType": "address",
          "name": "caller",
          "type": "address"
        },
        {
          "internalType": "address",
          "name": "owner",
          "type": "address"
        }
      ],
      "name": "NotOwner",
      "type": "error"
    },
    {
      "inputs": [
        {
          "internalType": "address",
          "name": "owner",
          "type": "address"
        }
      ],
      "name": "OwnableInvalidOwner",
      "type": "error"
    },
    {
      "inputs": [
        {
          "internalType": "address",
          "name": "account",
          "type": "address"
        }
      ],
      "name": "OwnableUnauthorizedAccount",
      "type": "error"
    },
    {
      "inputs": [],
      "name": "OwnerQueryForNonexistentToken",
      "type": "error"
    },
    {
      "inputs": [],
      "name": "OwnershipNotInitializedForExtraData",
      "type": "error"
    },
    {
      "inputs": [],
      "name": "SequentialMintExceedsLimit",
      "type": "error"
    },
    {
      "inputs": [],
      "name": "SequentialUpToTooSmall",
      "type": "error"
    },
    {
      "inputs": [],
      "name": "SpotMintTokenIdTooSmall",
      "type": "error"
    },
    {
      "inputs": [],
      "name": "TokenAlreadyExists",
      "type": "error"
    },
    {
      "inputs": [],
      "name": "TransferCallerNotOwnerNorApproved",
      "type": "error"
    },
    {
      "inputs": [],
      "name": "TransferFromIncorrectOwner",
      "type": "error"
    },
    {
      "inputs": [],
      "name": "TransferToNonERC721ReceiverImplementer",
      "type": "error"
    },
    {
      "inputs": [],
      "name": "TransferToZeroAddress",
      "type": "error"
    },
    {
      "inputs": [],
      "name": "URIQueryForNonexistentToken",
      "type": "error"
    },
    {
      "inputs": [],
      "name": "UUPSUnauthorizedCallContext",
      "type": "error"
    },
    {
      "inputs": [
        {
          "internalType": "bytes32",
          "name": "slot",
          "type": "bytes32"
        }
      ],
      "name": "UUPSUnsupportedProxiableUUID",
      "type": "error"
    },
    {
      "anonymous": false,
      "inputs": [
        {
          "indexed": true,
          "internalType": "address",
          "name": "owner",
          "type": "address"
        },
        {
          "indexed": true,
          "internalType": "address",
          "name": "approved",
          "type": "address"
        },
        {
          "indexed": true,
          "internalType": "uint256",
          "name": "tokenId",
          "type": "uint256"
        }
      ],
      "name": "Approval",
      "type": "event"
    },
    {
      "anonymous": false,
      "inputs": [
        {
          "indexed": true,
          "internalType": "address",
          "name": "owner",
          "type": "address"
        },
        {
          "indexed": true,
          "internalType": "address",
          "name": "operator",
          "type": "address"
        },
        {
          "indexed": false,
          "internalType": "bool",
          "name": "approved",
          "type": "bool"
        }
      ],
      "name": "ApprovalForAll",
      "type": "event"
    },
    {
      "anonymous": false,
      "inputs": [
        {
          "indexed": false,
          "internalType": "address[]",
          "name": "receivers",
          "type": "address[]"
        },
        {
          "indexed": false,
          "internalType": "uint256[]",
          "name": "tokenIds",
          "type": "uint256[]"
        }
      ],
      "name": "BatchMinted",
      "type": "event"
    },
    {
      "anonymous": false,
      "inputs": [
        {
          "indexed": true,
          "internalType": "uint256",
          "name": "fromTokenId",
          "type": "uint256"
        },
        {
          "indexed": false,
          "internalType": "uint256",
          "name": "toTokenId",
          "type": "uint256"
        },
        {
          "indexed": true,
          "internalType": "address",
          "name": "from",
          "type": "address"
        },
        {
          "indexed": true,
          "internalType": "address",
          "name": "to",
          "type": "address"
        }
      ],
      "name": "ConsecutiveTransfer",
      "type": "event"
    },
    {
      "anonymous": false,
      "inputs": [
        {
          "indexed": false,
          "internalType": "uint64",
          "name": "version",
          "type": "uint64"
        }
      ],
      "name": "Initialized",
      "type": "event"
    },
    {
      "anonymous": false,
      "inputs": [
        {
          "indexed": true,
          "internalType": "address",
          "name": "to",
          "type": "address"
        },
        {
          "indexed": true,
          "internalType": "uint256",
          "name": "tokenId",
          "type": "uint256"
        }
      ],
      "name": "Minted",
      "type": "event"
    },
    {
      "anonymous": false,
      "inputs": [
        {
          "indexed": true,
          "internalType": "address",
          "name": "previousOwner",
          "type": "address"
        },
        {
          "indexed": true,
          "internalType": "address",
          "name": "newOwner",
          "type": "address"
        }
      ],
      "name": "OwnershipTransferred",
      "type": "event"
    },
    {
      "anonymous": false,
      "inputs": [
        {
          "indexed": true,
          "internalType": "address",
          "name": "from",
          "type": "address"
        },
        {
          "indexed": true,
          "internalType": "address",
          "name": "to",
          "type": "address"
        },
        {
          "indexed": true,
          "internalType": "uint256",
          "name": "tokenId",
          "type": "uint256"
        }
      ],
      "name": "Transfer",
      "type": "event"
    },
    {
      "anonymous": false,
      "inputs": [
        {
          "indexed": true,
          "internalType": "address",
          "name": "implementation",
          "type": "address"
        }
      ],
      "name": "Upgraded",
      "type": "event"
    },
    {
      "inputs": [],
      "name": "UPGRADE_INTERFACE_VERSION",
      "outputs": [
        {
          "internalType": "string",
          "name": "",
          "type": "string"
        }
      ],
      "stateMutability": "view",
      "type": "function"
    },
    {
      "inputs": [
        {
          "internalType": "address",
          "name": "to",
          "type": "address"
        },
        {
          "internalType": "uint256",
          "name": "tokenId",
          "type": "uint256"
        }
      ],
      "name": "approve",
      "outputs": [],
      "stateMutability": "payable",
      "type": "function"
    },
    {
      "inputs": [
        {
          "internalType": "address",
          "name": "owner",
          "type": "address"
        }
      ],
      "name": "balanceOf",
      "outputs": [
        {
          "internalType": "uint256",
          "name": "",
          "type": "uint256"
        }
      ],
      "stateMutability": "view",
      "type": "function"
    },
    {
      "inputs": [
        {
          "internalType": "address",
          "name": "newOwner",
          "type": "address"
        }
      ],
      "name": "changeOwner",
      "outputs": [],
      "stateMutability": "nonpayable",
      "type": "function"
    },
    {
      "inputs": [
        {
          "internalType": "uint256",
          "name": "tokenId",
          "type": "uint256"
        }
      ],
      "name": "getApproved",
      "outputs": [
        {
          "internalType": "address",
          "name": "",
          "type": "address"
        }
      ],
      "stateMutability": "view",
      "type": "function"
    },
    {
      "inputs": [
        {
          "internalType": "string",
          "name": "name_",
          "type": "string"
        },
        {
          "internalType": "string",
          "name": "symbol_",
          "type": "string"
        }
      ],
      "name": "initialize",
      "outputs": [],
      "stateMutability": "nonpayable",
      "type": "function"
    },
    {
      "inputs": [
        {
          "internalType": "address",
          "name": "owner",
          "type": "address"
        },
        {
          "internalType": "address",
          "name": "operator",
          "type": "address"
        }
      ],
      "name": "isApprovedForAll",
      "outputs": [
        {
          "internalType": "bool",
          "name": "",
          "type": "bool"
        }
      ],
      "stateMutability": "view",
      "type": "function"
    },
    {
      "inputs": [
        {
          "internalType": "address",
          "name": "to",
          "type": "address"
        }
      ],
      "name": "mintTo",
      "outputs": [
        {
          "internalType": "uint256",
          "name": "",
          "type": "uint256"
        }
      ],
      "stateMutability": "nonpayable",
      "type": "function"
    },
    {
      "inputs": [
        {
          "internalType": "address[]",
          "name": "receivers",
          "type": "address[]"
        },
        {
          "internalType": "string[]",
          "name": "tokenUris",
          "type": "string[]"
        }
      ],
      "name": "mintToMany",
      "outputs": [],
      "stateMutability": "nonpayable",
      "type": "function"
    },
    {
      "inputs": [],
      "name": "name",
      "outputs": [
        {
          "internalType": "string",
          "name": "",
          "type": "string"
        }
      ],
      "stateMutability": "view",
      "type": "function"
    },
    {
      "inputs": [],
      "name": "nextTokenId",
      "outputs": [
        {
          "internalType": "uint256",
          "name": "",
          "type": "uint256"
        }
      ],
      "stateMutability": "view",
      "type": "function"
    },
    {
      "inputs": [],
      "name": "owner",
      "outputs": [
        {
          "internalType": "address",
          "name": "",
          "type": "address"
        }
      ],
      "stateMutability": "view",
      "type": "function"
    },
    {
      "inputs": [
        {
          "internalType": "uint256",
          "name": "tokenId",
          "type": "uint256"
        }
      ],
      "name": "ownerOf",
      "outputs": [
        {
          "internalType": "address",
          "name": "",
          "type": "address"
        }
      ],
      "stateMutability": "view",
      "type": "function"
    },
    {
      "inputs": [],
      "name": "proxiableUUID",
      "outputs": [
        {
          "internalType": "bytes32",
          "name": "",
          "type": "bytes32"
        }
      ],
      "stateMutability": "view",
      "type": "function"
    },
    {
      "inputs": [],
      "name": "renounceOwnership",
      "outputs": [],
      "stateMutability": "nonpayable",
      "type": "function"
    },
    {
      "inputs": [
        {
          "internalType": "address",
          "name": "from",
          "type": "address"
        },
        {
          "internalType": "address",
          "name": "to",
          "type": "address"
        },
        {
          "internalType": "uint256",
          "name": "tokenId",
          "type": "uint256"
        }
      ],
      "name": "safeTransferFrom",
      "outputs": [],
      "stateMutability": "payable",
      "type": "function"
    },
    {
      "inputs": [
        {
          "internalType": "address",
          "name": "from",
          "type": "address"
        },
        {
          "internalType": "address",
          "name": "to",
          "type": "address"
        },
        {
          "internalType": "uint256",
          "name": "tokenId",
          "type": "uint256"
        },
        {
          "internalType": "bytes",
          "name": "_data",
          "type": "bytes"
        }
      ],
      "name": "safeTransferFrom",
      "outputs": [],
      "stateMutability": "payable",
      "type": "function"
    },
    {
      "inputs": [
        {
          "internalType": "address",
          "name": "operator",
          "type": "address"
        },
        {
          "internalType": "bool",
          "name": "approved",
          "type": "bool"
        }
      ],
      "name": "setApprovalForAll",
      "outputs": [],
      "stateMutability": "nonpayable",
      "type": "function"
    },
    {
      "inputs": [
        {
          "internalType": "bytes4",
          "name": "interfaceId",
          "type": "bytes4"
        }
      ],
      "name": "supportsInterface",
      "outputs": [
        {
          "internalType": "bool",
          "name": "",
          "type": "bool"
        }
      ],
      "stateMutability": "view",
      "type": "function"
    },
    {
      "inputs": [],
      "name": "symbol",
      "outputs": [
        {
          "internalType": "string",
          "name": "",
          "type": "string"
        }
      ],
      "stateMutability": "view",
      "type": "function"
    },
    {
      "inputs": [
        {
          "internalType": "uint256",
          "name": "tokenId",
          "type": "uint256"
        }
      ],
      "name": "tokenURI",
      "outputs": [
        {
          "internalType": "string",
          "name": "",
          "type": "string"
        }
      ],
      "stateMutability": "view",
      "type": "function"
    },
    {
      "inputs": [],
      "name": "totalSupply",
      "outputs": [
        {
          "internalType": "uint256",
          "name": "result",
          "type": "uint256"
        }
      ],
      "stateMutability": "view",
      "type": "function"
    },
    {
      "inputs": [
        {
          "internalType": "address",
          "name": "from",
          "type": "address"
        },
        {
          "internalType": "address",
          "name": "to",
          "type": "address"
        },
        {
          "internalType": "uint256",
          "name": "tokenId",
          "type": "uint256"
        }
      ],
      "name": "transferFrom",
      "outputs": [],
      "stateMutability": "payable",
      "type": "function"
    },
    {
      "inputs": [
        {
          "internalType": "address",
          "name": "newOwner",
          "type": "address"
        }
      ],
      "name": "transferOwnership",
      "outputs": [],
      "stateMutability": "nonpayable",
      "type": "function"
    },
    {
      "inputs": [
        {
          "internalType": "address",
          "name": "newImplementation",
          "type": "address"
        },
        {
          "internalType": "bytes",
          "name": "data",
          "type": "bytes"
        }
      ],
      "name": "upgradeToAndCall",
      "outputs": [],
      "stateMutability": "payable",
      "type": "function"
    }
  ],
  "bytecode": "0x60a06040523073ffffffffffffffffffffffffffffffffffffffff1660809073ffffffffffffffffffffffffffffffffffffffff1681525034801561004357600080fd5b5061005261005760201b60201c565b6101de565b600061006761015b60201b60201c565b90508060000160089054906101000a900460ff16156100b2576040517ff92ee8a900000000000000000000000000000000000000000000000000000000815260040160405180910390fd5b67ffffffffffffffff80168160000160009054906101000a900467ffffffffffffffff1667ffffffffffffffff16146101585767ffffffffffffffff8160000160006101000a81548167ffffffffffffffff021916908367ffffffffffffffff1602179055507fc7f505b2f371ae2175ee4913f4499e1f2633a7b5936321eed1cdaeb6115181d267ffffffffffffffff60405161014f91906101c3565b60405180910390a15b50565b60008061016c61017560201b60201c565b90508091505090565b60007ff0c57e16840df040f15088dc2f81fe391c3923bec73e23a9662efc9c229c6a0060001b905090565b600067ffffffffffffffff82169050919050565b6101bd816101a0565b82525050565b60006020820190506101d860008301846101b4565b92915050565b608051613cc261020760003960008181611be201528181611c370152611df20152613cc26000f3fe6080604052600436106101665760003560e01c8063715018a6116100d1578063a6f9dae11161008a578063c617908b11610064578063c617908b146104e7578063c87b56dd14610510578063e985e9c51461054d578063f2fde38b1461058a57610166565b8063a6f9dae114610477578063ad3cb1cc146104a0578063b88d4fde146104cb57610166565b8063715018a614610379578063755edd171461039057806375794a3c146103cd5780638da5cb5b146103f857806395d89b4114610423578063a22cb4651461044e57610166565b806342842e0e1161012357806342842e0e146102735780634cd88b761461028f5780634f1ef286146102b857806352d1902d146102d45780636352211e146102ff57806370a082311461033c57610166565b806301ffc9a71461016b57806306fdde03146101a8578063081812fc146101d3578063095ea7b31461021057806318160ddd1461022c57806323b872dd14610257575b600080fd5b34801561017757600080fd5b50610192600480360381019061018d91906128b7565b6105b3565b60405161019f91906128ff565b60405180910390f35b3480156101b457600080fd5b506101bd610645565b6040516101ca91906129aa565b60405180910390f35b3480156101df57600080fd5b506101fa60048036038101906101f59190612a02565b6106e0565b6040516102079190612a70565b60405180910390f35b61022a60048036038101906102259190612ab7565b610747565b005b34801561023857600080fd5b50610241610757565b60405161024e9190612b06565b60405180910390f35b610271600480360381019061026c9190612b21565b6107bf565b005b61028d60048036038101906102889190612b21565b610ab6565b005b34801561029b57600080fd5b506102b660048036038101906102b19190612ca9565b610ad6565b005b6102d260048036038101906102cd9190612dc2565b610d9c565b005b3480156102e057600080fd5b506102e9610dbb565b6040516102f69190612e37565b60405180910390f35b34801561030b57600080fd5b5061032660048036038101906103219190612a02565b610dee565b6040516103339190612a70565b60405180910390f35b34801561034857600080fd5b50610363600480360381019061035e9190612e52565b610e00565b6040516103709190612b06565b60405180910390f35b34801561038557600080fd5b5061038e610ea0565b005b34801561039c57600080fd5b506103b760048036038101906103b29190612e52565b610eb4565b6040516103c49190612b06565b60405180910390f35b3480156103d957600080fd5b506103e2610f30565b6040516103ef9190612b06565b60405180910390f35b34801561040457600080fd5b5061040d610f36565b60405161041a9190612a70565b60405180910390f35b34801561042f57600080fd5b50610438610f6e565b60405161044591906129aa565b60405180910390f35b34801561045a57600080fd5b5061047560048036038101906104709190612eab565b611009565b005b34801561048357600080fd5b5061049e60048036038101906104999190612e52565b61111d565b005b3480156104ac57600080fd5b506104b56111a0565b6040516104c291906129aa565b60405180910390f35b6104e560048036038101906104e09190612eeb565b6111d9565b005b3480156104f357600080fd5b5061050e60048036038101906105099190613024565b61122b565b005b34801561051c57600080fd5b5061053760048036038101906105329190612a02565b611482565b60405161054491906129aa565b60405180910390f35b34801561055957600080fd5b50610574600480360381019061056f91906130a5565b61156f565b60405161058191906128ff565b60405180910390f35b34801561059657600080fd5b506105b160048036038101906105ac9190612e52565b61160c565b005b60006301ffc9a760e01b827bffffffffffffffffffffffffffffffffffffffffffffffffffffffff1916148061060e57506380ac58cd60e01b827bffffffffffffffffffffffffffffffffffffffffffffffffffffffff1916145b8061063e5750635b5e139f60e01b827bffffffffffffffffffffffffffffffffffffffffffffffffffffffff1916145b9050919050565b606061064f611692565b600201805461065d90613114565b80601f016020809104026020016040519081016040528092919081815260200182805461068990613114565b80156106d65780601f106106ab576101008083540402835291602001916106d6565b820191906000526020600020905b8154815290600101906020018083116106b957829003601f168201915b5050505050905090565b60006106eb826116bf565b610700576106ff63cf4700e460e01b611786565b5b610708611692565b600601600083815260200190815260200160002060000160009054906101000a900473ffffffffffffffffffffffffffffffffffffffff169050919050565b61075382826001611790565b5050565b60006107616118c8565b610769611692565b60010154610775611692565b60000154030390507fffffffffffffffffffffffffffffffffffffffffffffffffffffffffffffffff6107a66118cd565b146107bc576107b3611692565b60080154810190505b90565b60006107ca826118f5565b905073ffffffffffffffffffffffffffffffffffffffff8473ffffffffffffffffffffffffffffffffffffffff161693508373ffffffffffffffffffffffffffffffffffffffff168173ffffffffffffffffffffffffffffffffffffffff161461083f5761083e63a114810060e01b611786565b5b60008061084b84611a29565b91509150610861818761085c611a59565b611a61565b61088c5761087686610871611a59565b61156f565b61088b5761088a6359c896be60e01b611786565b5b5b6108998686866001611aa5565b80156108a457600082555b6108ac611692565b60050160008773ffffffffffffffffffffffffffffffffffffffff1673ffffffffffffffffffffffffffffffffffffffff168152602001908152602001600020600081546001900391905081905550610903611692565b60050160008673ffffffffffffffffffffffffffffffffffffffff1673ffffffffffffffffffffffffffffffffffffffff168152602001908152602001600020600081546001019190508190555061098485610960888887611aab565b7c020000000000000000000000000000000000000000000000000000000017611ad3565b61098c611692565b60040160008681526020019081526020016000208190555060007c0200000000000000000000000000000000000000000000000000000000841603610a2e57600060018501905060006109dd611692565b60040160008381526020019081526020016000205403610a2c576109ff611692565b600001548114610a2b5783610a12611692565b6004016000838152602001908152602001600020819055505b5b505b600073ffffffffffffffffffffffffffffffffffffffff8673ffffffffffffffffffffffffffffffffffffffff161690508481887fddf252ad1be2c89b69c2b068fc378daa952ba7f163c4a11628f55a4df523b3ef600080a460008103610aa057610a9f63ea553b3460e01b611786565b5b610aad8787876001611afe565b50505050505050565b610ad1838383604051806020016040528060008152506111d9565b505050565b610ade611b04565b60000160019054906101000a900460ff16610b1257610afb611b04565b60000160009054906101000a900460ff1615610b1b565b610b1a611b31565b5b610b5a576040517f08c379a0000000000000000000000000000000000000000000000000000000008152600401610b51906131b7565b60405180910390fd5b6000610b64611b04565b60000160019054906101000a900460ff161590508015610bc7576001610b88611b04565b60000160016101000a81548160ff0219169083151502179055506001610bac611b04565b60000160006101000a81548160ff0219169083151502179055505b6000610bd1611b48565b905060008160000160089054906101000a900460ff1615905060008260000160009054906101000a900467ffffffffffffffff1690506000808267ffffffffffffffff16148015610c1f5750825b9050600060018367ffffffffffffffff16148015610c54575060003073ffffffffffffffffffffffffffffffffffffffff163b145b905081158015610c62575080155b15610c99576040517ff92ee8a900000000000000000000000000000000000000000000000000000000815260040160405180910390fd5b60018560000160006101000a81548167ffffffffffffffff021916908367ffffffffffffffff1602179055508315610ce95760018560000160086101000a81548160ff0219169083151502179055505b610cf38888611b5c565b610cfc33611bc2565b610d04611bd6565b600080819055508315610d675760008560000160086101000a81548160ff0219169083151502179055507fc7f505b2f371ae2175ee4913f4499e1f2633a7b5936321eed1cdaeb6115181d26001604051610d5e9190613230565b60405180910390a15b50505050508015610d97576000610d7c611b04565b60000160016101000a81548160ff0219169083151502179055505b505050565b610da4611be0565b610dad82611cc6565b610db78282611cd1565b5050565b6000610dc5611df0565b7f360894a13ba1a3210667c828492db98dca3e2076cc3735a920a3ca505d382bbc60001b905090565b6000610df9826118f5565b9050919050565b60008073ffffffffffffffffffffffffffffffffffffffff168273ffffffffffffffffffffffffffffffffffffffff1603610e4657610e45638f4eb60460e01b611786565b5b67ffffffffffffffff610e57611692565b60050160008473ffffffffffffffffffffffffffffffffffffffff1673ffffffffffffffffffffffffffffffffffffffff16815260200190815260200160002054169050919050565b610ea8611e77565b610eb26000611efe565b565b6000610ebe611e77565b6000806000815480929190610ed29061327a565b919050559050610ee3836001611fd5565b808373ffffffffffffffffffffffffffffffffffffffff167f30385c845b448a36257a6a1716e6ad2e1bc2cbe333cde1e69fe849ad6511adfe60405160405180910390a380915050919050565b60005481565b600080610f41612180565b90508060000160009054906101000a900473ffffffffffffffffffffffffffffffffffffffff1691505090565b6060610f78611692565b6003018054610f8690613114565b80601f0160208091040260200160405190810160405280929190818152602001828054610fb290613114565b8015610fff5780601f10610fd457610100808354040283529160200191610fff565b820191906000526020600020905b815481529060010190602001808311610fe257829003601f168201915b5050505050905090565b80611012611692565b600701600061101f611a59565b73ffffffffffffffffffffffffffffffffffffffff1673ffffffffffffffffffffffffffffffffffffffff16815260200190815260200160002060008473ffffffffffffffffffffffffffffffffffffffff1673ffffffffffffffffffffffffffffffffffffffff16815260200190815260200160002060006101000a81548160ff0219169083151502179055508173ffffffffffffffffffffffffffffffffffffffff166110cc611a59565b73ffffffffffffffffffffffffffffffffffffffff167f17307eab39ab6107e8899845ad3d59bd9653f200f220920489ca2b5937696c318360405161111191906128ff565b60405180910390a35050565b611125611e77565b600073ffffffffffffffffffffffffffffffffffffffff168173ffffffffffffffffffffffffffffffffffffffff1603611194576040517f08c379a000000000000000000000000000000000000000000000000000000000815260040161118b9061330e565b60405180910390fd5b61119d81611efe565b50565b6040518060400160405280600581526020017f352e302e3000000000000000000000000000000000000000000000000000000081525081565b6111e48484846107bf565b60008373ffffffffffffffffffffffffffffffffffffffff163b146112255761120f848484846121a8565b6112245761122363d1a57ed660e01b611786565b5b5b50505050565b600084849050905060008111611276576040517f08c379a000000000000000000000000000000000000000000000000000000000815260040161126d9061337a565b60405180910390fd5b8282905081146112bb576040517f08c379a00000000000000000000000000000000000000000000000000000000081526004016112b29061340c565b60405180910390fd5b60008167ffffffffffffffff8111156112d7576112d6612b7e565b5b6040519080825280602002602001820160405280156113055781602001602082028036833780820191505090505b50905060005b8281101561143e5760008060008154809291906113279061327a565b919050559050808383815181106113415761134061342c565b5b60200260200101818152505061137f8888848181106113635761136261342c565b5b90506020020160208101906113789190612e52565b6001611fd5565b8585838181106113925761139161342c565b5b90506020028101906113a4919061346a565b6001600084815260200190815260200160002091826113c492919061367a565b50808888848181106113d9576113d861342c565b5b90506020020160208101906113ee9190612e52565b73ffffffffffffffffffffffffffffffffffffffff167f30385c845b448a36257a6a1716e6ad2e1bc2cbe333cde1e69fe849ad6511adfe60405160405180910390a350808060010191505061130b565b507f46c094f2f2404297a48a7c4d47697ed07cd7dcb542f35259c65ace5c1f68e1db868683604051611472939291906138cb565b60405180910390a1505050505050565b606061148d826116bf565b6114cc576040517f08c379a00000000000000000000000000000000000000000000000000000000081526004016114c390613950565b60405180910390fd5b6001600083815260200190815260200160002080546114ea90613114565b80601f016020809104026020016040519081016040528092919081815260200182805461151690613114565b80156115635780601f1061153857610100808354040283529160200191611563565b820191906000526020600020905b81548152906001019060200180831161154657829003601f168201915b50505050509050919050565b6000611579611692565b60070160008473ffffffffffffffffffffffffffffffffffffffff1673ffffffffffffffffffffffffffffffffffffffff16815260200190815260200160002060008373ffffffffffffffffffffffffffffffffffffffff1673ffffffffffffffffffffffffffffffffffffffff16815260200190815260200160002060009054906101000a900460ff16905092915050565b611614611e77565b600073ffffffffffffffffffffffffffffffffffffffff168173ffffffffffffffffffffffffffffffffffffffff16036116865760006040517f1e4fbdf700000000000000000000000000000000000000000000000000000000815260040161167d9190612a70565b60405180910390fd5b61168f81611efe565b50565b6000807f2569078dfb4b0305704d3008e7403993ae9601b85f7ae5e742de3de8f8011c4090508091505090565b6000816116ca6118c8565b11611780576116d76118cd565b82111561170a576117036116e9611692565b6004016000848152602001908152602001600020546122d7565b9050611781565b611712611692565b6000015482101561177f5760005b600061172a611692565b60040160008581526020019081526020016000205491508103611758578261175190613970565b9250611720565b60007c01000000000000000000000000000000000000000000000000000000008216149150505b5b5b919050565b8060005260046000fd5b600061179b83610dee565b90508180156117dd57508073ffffffffffffffffffffffffffffffffffffffff166117c4611a59565b73ffffffffffffffffffffffffffffffffffffffff1614155b15611809576117f3816117ee611a59565b61156f565b6118085761180763cfb3b94260e01b611786565b5b5b83611812611692565b600601600085815260200190815260200160002060000160006101000a81548173ffffffffffffffffffffffffffffffffffffffff021916908373ffffffffffffffffffffffffffffffffffffffff160217905550828473ffffffffffffffffffffffffffffffffffffffff168273ffffffffffffffffffffffffffffffffffffffff167f8c5be1e5ebec7d5bd14f71427d1e84f3dd0314c0f7b2291e5b200ac8c7c3b92560405160405180910390a450505050565b600090565b60007fffffffffffffffffffffffffffffffffffffffffffffffffffffffffffffffff905090565b6000816119006118c8565b11611a135761190d611692565b600401600083815260200190815260200160002054905061192c6118cd565b8211156119515761193c816122d7565b611a245761195063df2d9b4260e01b611786565b5b600081036119ea57611961611692565b60000154821061197c5761197b63df2d9b4260e01b611786565b5b5b611985611692565b60040160008360019003935083815260200190815260200160002054905060008103156119e55760007c010000000000000000000000000000000000000000000000000000000082160315611a24576119e463df2d9b4260e01b611786565b5b61197d565b60007c010000000000000000000000000000000000000000000000000000000082160315611a24575b611a2363df2d9b4260e01b611786565b5b919050565b6000806000611a36611692565b600601600085815260200190815260200160002090508092508254915050915091565b600033905090565b600073ffffffffffffffffffffffffffffffffffffffff8316925073ffffffffffffffffffffffffffffffffffffffff821691508382148383141790509392505050565b50505050565b60008060e883901c905060e8611ac2868684612318565b62ffffff16901b9150509392505050565b600073ffffffffffffffffffffffffffffffffffffffff83169250814260a01b178317905092915050565b50505050565b6000807fee151c8401928dc223602bb187aff91b9a56c7cae5476ef1b3287b085a16c85f90508091505090565b6000803090506000813b9050600081149250505090565b600080611b53612321565b90508091505090565b611b64611b04565b60000160019054906101000a900460ff16611bb4576040517f08c379a0000000000000000000000000000000000000000000000000000000008152600401611bab90613a0b565b60405180910390fd5b611bbe828261234c565b5050565b611bca612418565b611bd381612458565b50565b611bde612418565b565b7f000000000000000000000000000000000000000000000000000000000000000073ffffffffffffffffffffffffffffffffffffffff163073ffffffffffffffffffffffffffffffffffffffff161480611c8d57507f000000000000000000000000000000000000000000000000000000000000000073ffffffffffffffffffffffffffffffffffffffff16611c746124de565b73ffffffffffffffffffffffffffffffffffffffff1614155b15611cc4576040517fe07c8dba00000000000000000000000000000000000000000000000000000000815260040160405180910390fd5b565b611cce611e77565b50565b8173ffffffffffffffffffffffffffffffffffffffff166352d1902d6040518163ffffffff1660e01b8152600401602060405180830381865afa925050508015611d3957506040513d601f19601f82011682018060405250810190611d369190613a57565b60015b611d7a57816040517f4c9c8ce3000000000000000000000000000000000000000000000000000000008152600401611d719190612a70565b60405180910390fd5b7f360894a13ba1a3210667c828492db98dca3e2076cc3735a920a3ca505d382bbc60001b8114611de157806040517faa1d49a4000000000000000000000000000000000000000000000000000000008152600401611dd89190612e37565b60405180910390fd5b611deb8383612535565b505050565b7f000000000000000000000000000000000000000000000000000000000000000073ffffffffffffffffffffffffffffffffffffffff163073ffffffffffffffffffffffffffffffffffffffff1614611e75576040517fe07c8dba00000000000000000000000000000000000000000000000000000000815260040160405180910390fd5b565b611e7f6125a8565b73ffffffffffffffffffffffffffffffffffffffff16611e9d610f36565b73ffffffffffffffffffffffffffffffffffffffff1614611efc57611ec06125a8565b6040517f118cdaa7000000000000000000000000000000000000000000000000000000008152600401611ef39190612a70565b60405180910390fd5b565b6000611f08612180565b905060008160000160009054906101000a900473ffffffffffffffffffffffffffffffffffffffff169050828260000160006101000a81548173ffffffffffffffffffffffffffffffffffffffff021916908373ffffffffffffffffffffffffffffffffffffffff1602179055508273ffffffffffffffffffffffffffffffffffffffff168173ffffffffffffffffffffffffffffffffffffffff167f8be0079c531659141344cd1fd0a4f28419497f9722a3daafe3b4186f6b6457e060405160405180910390a3505050565b6000611fdf611692565b60000154905060008203611ffe57611ffd63b562e8dd60e01b611786565b5b61200b6000848385611aa5565b61202b8361201c6000866000611aab565b612025856125b0565b17611ad3565b612033611692565b600401600083815260200190815260200160002081905550600160406001901b17820261205e611692565b60050160008573ffffffffffffffffffffffffffffffffffffffff1673ffffffffffffffffffffffffffffffffffffffff16815260200190815260200160002060008282540192505081905550600073ffffffffffffffffffffffffffffffffffffffff8473ffffffffffffffffffffffffffffffffffffffff16169050600081036120f5576120f4632e07630060e01b611786565b5b6000838301905060008390506121096118cd565b600183031115612124576121236381647e3a60e01b611786565b5b5b808360007fddf252ad1be2c89b69c2b068fc378daa952ba7f163c4a11628f55a4df523b3ef600080a48181600101915081036121255781612164611692565b6000018190555050505061217b6000848385611afe565b505050565b60007f9016d09d72d40fdae2fd8ceac6b6234c7706214fd39c1cd1e609a0528c199300905090565b60008373ffffffffffffffffffffffffffffffffffffffff1663150b7a026121ce611a59565b8786866040518563ffffffff1660e01b81526004016121f09493929190613ad9565b6020604051808303816000875af192505050801561222c57506040513d601f19601f820116820180604052508101906122299190613b3a565b60015b612284573d806000811461225c576040519150601f19603f3d011682016040523d82523d6000602084013e612261565b606091505b50600081510361227c5761227b63d1a57ed660e01b611786565b5b805181602001fd5b63150b7a0260e01b7bffffffffffffffffffffffffffffffffffffffffffffffffffffffff1916817bffffffffffffffffffffffffffffffffffffffffffffffffffffffff191614915050949350505050565b60007c0100000000000000000000000000000000000000000000000000000000821673ffffffffffffffffffffffffffffffffffffffff8316119050919050565b60009392505050565b60007ff0c57e16840df040f15088dc2f81fe391c3923bec73e23a9662efc9c229c6a0060001b905090565b612354611b04565b60000160019054906101000a900460ff166123a4576040517f08c379a000000000000000000000000000000000000000000000000000000000815260040161239b90613a0b565b60405180910390fd5b816123ad611692565b60020190816123bc9190613b67565b50806123c6611692565b60030190816123d59190613b67565b506123de6118c8565b6123e6611692565b600001819055506123f56118c8565b6123fd6118cd565b10156124145761241363fed8210f60e01b611786565b5b5050565b6124206125c0565b612456576040517fd7e6bcf800000000000000000000000000000000000000000000000000000000815260040160405180910390fd5b565b612460612418565b600073ffffffffffffffffffffffffffffffffffffffff168173ffffffffffffffffffffffffffffffffffffffff16036124d25760006040517f1e4fbdf70000000000000000000000000000000000000000000000000000000081526004016124c99190612a70565b60405180910390fd5b6124db81611efe565b50565b600061250c7f360894a13ba1a3210667c828492db98dca3e2076cc3735a920a3ca505d382bbc60001b6125e0565b60000160009054906101000a900473ffffffffffffffffffffffffffffffffffffffff16905090565b61253e826125ea565b8173ffffffffffffffffffffffffffffffffffffffff167fbc7cd75a20ee27fd9adebab32041f755214dbc6bffa90cc0225b39da2e5c2d3b60405160405180910390a260008151111561259b5761259582826126b7565b506125a4565b6125a361273b565b5b5050565b600033905090565b60006001821460e11b9050919050565b60006125ca611b48565b60000160089054906101000a900460ff16905090565b6000819050919050565b60008173ffffffffffffffffffffffffffffffffffffffff163b0361264657806040517f4c9c8ce300000000000000000000000000000000000000000000000000000000815260040161263d9190612a70565b60405180910390fd5b806126737f360894a13ba1a3210667c828492db98dca3e2076cc3735a920a3ca505d382bbc60001b6125e0565b60000160006101000a81548173ffffffffffffffffffffffffffffffffffffffff021916908373ffffffffffffffffffffffffffffffffffffffff16021790555050565b60606000808473ffffffffffffffffffffffffffffffffffffffff16846040516126e19190613c75565b600060405180830381855af49150503d806000811461271c576040519150601f19603f3d011682016040523d82523d6000602084013e612721565b606091505b5091509150612731858383612778565b9250505092915050565b6000341115612776576040517fb398979f00000000000000000000000000000000000000000000000000000000815260040160405180910390fd5b565b60608261278d5761278882612807565b6127ff565b600082511480156127b5575060008473ffffffffffffffffffffffffffffffffffffffff163b145b156127f757836040517f9996b3150000000000000000000000000000000000000000000000000000000081526004016127ee9190612a70565b60405180910390fd5b819050612800565b5b9392505050565b60008151111561281957805160208201fd5b6040517fd6bda27500000000000000000000000000000000000000000000000000000000815260040160405180910390fd5b6000604051905090565b600080fd5b600080fd5b60007fffffffff0000000000000000000000000000000000000000000000000000000082169050919050565b6128948161285f565b811461289f57600080fd5b50565b6000813590506128b18161288b565b92915050565b6000602082840312156128cd576128cc612855565b5b60006128db848285016128a2565b91505092915050565b60008115159050919050565b6128f9816128e4565b82525050565b600060208201905061291460008301846128f0565b92915050565b600081519050919050565b600082825260208201905092915050565b60005b83811015612954578082015181840152602081019050612939565b60008484015250505050565b6000601f19601f8301169050919050565b600061297c8261291a565b6129868185612925565b9350612996818560208601612936565b61299f81612960565b840191505092915050565b600060208201905081810360008301526129c48184612971565b905092915050565b6000819050919050565b6129df816129cc565b81146129ea57600080fd5b50565b6000813590506129fc816129d6565b92915050565b600060208284031215612a1857612a17612855565b5b6000612a26848285016129ed565b91505092915050565b600073ffffffffffffffffffffffffffffffffffffffff82169050919050565b6000612a5a82612a2f565b9050919050565b612a6a81612a4f565b82525050565b6000602082019050612a856000830184612a61565b92915050565b612a9481612a4f565b8114612a9f57600080fd5b50565b600081359050612ab181612a8b565b92915050565b60008060408385031215612ace57612acd612855565b5b6000612adc85828601612aa2565b9250506020612aed858286016129ed565b9150509250929050565b612b00816129cc565b82525050565b6000602082019050612b1b6000830184612af7565b92915050565b600080600060608486031215612b3a57612b39612855565b5b6000612b4886828701612aa2565b9350506020612b5986828701612aa2565b9250506040612b6a868287016129ed565b9150509250925092565b600080fd5b600080fd5b7f4e487b7100000000000000000000000000000000000000000000000000000000600052604160045260246000fd5b612bb682612960565b810181811067ffffffffffffffff82111715612bd557612bd4612b7e565b5b80604052505050565b6000612be861284b565b9050612bf48282612bad565b919050565b600067ffffffffffffffff821115612c1457612c13612b7e565b5b612c1d82612960565b9050602081019050919050565b82818337600083830152505050565b6000612c4c612c4784612bf9565b612bde565b905082815260208101848484011115612c6857612c67612b79565b5b612c73848285612c2a565b509392505050565b600082601f830112612c9057612c8f612b74565b5b8135612ca0848260208601612c39565b91505092915050565b60008060408385031215612cc057612cbf612855565b5b600083013567ffffffffffffffff811115612cde57612cdd61285a565b5b612cea85828601612c7b565b925050602083013567ffffffffffffffff811115612d0b57612d0a61285a565b5b612d1785828601612c7b565b9150509250929050565b600067ffffffffffffffff821115612d3c57612d3b612b7e565b5b612d4582612960565b9050602081019050919050565b6000612d65612d6084612d21565b612bde565b905082815260208101848484011115612d8157612d80612b79565b5b612d8c848285612c2a565b509392505050565b600082601f830112612da957612da8612b74565b5b8135612db9848260208601612d52565b91505092915050565b60008060408385031215612dd957612dd8612855565b5b6000612de785828601612aa2565b925050602083013567ffffffffffffffff811115612e0857612e0761285a565b5b612e1485828601612d94565b9150509250929050565b6000819050919050565b612e3181612e1e565b82525050565b6000602082019050612e4c6000830184612e28565b92915050565b600060208284031215612e6857612e67612855565b5b6000612e7684828501612aa2565b91505092915050565b612e88816128e4565b8114612e9357600080fd5b50565b600081359050612ea581612e7f565b92915050565b60008060408385031215612ec257612ec1612855565b5b6000612ed085828601612aa2565b9250506020612ee185828601612e96565b9150509250929050565b60008060008060808587031215612f0557612f04612855565b5b6000612f1387828801612aa2565b9450506020612f2487828801612aa2565b9350506040612f35878288016129ed565b925050606085013567ffffffffffffffff811115612f5657612f5561285a565b5b612f6287828801612d94565b91505092959194509250565b600080fd5b600080fd5b60008083601f840112612f8e57612f8d612b74565b5b8235905067ffffffffffffffff811115612fab57612faa612f6e565b5b602083019150836020820283011115612fc757612fc6612f73565b5b9250929050565b60008083601f840112612fe457612fe3612b74565b5b8235905067ffffffffffffffff81111561300157613000612f6e565b5b60208301915083602082028301111561301d5761301c612f73565b5b9250929050565b6000806000806040858703121561303e5761303d612855565b5b600085013567ffffffffffffffff81111561305c5761305b61285a565b5b61306887828801612f78565b9450945050602085013567ffffffffffffffff81111561308b5761308a61285a565b5b61309787828801612fce565b925092505092959194509250565b600080604083850312156130bc576130bb612855565b5b60006130ca85828601612aa2565b92505060206130db85828601612aa2565b9150509250929050565b7f4e487b7100000000000000000000000000000000000000000000000000000000600052602260045260246000fd5b6000600282049050600182168061312c57607f821691505b60208210810361313f5761313e6130e5565b5b50919050565b7f455243373231415f5f496e697469616c697a61626c653a20636f6e747261637460008201527f20697320616c726561647920696e697469616c697a6564000000000000000000602082015250565b60006131a1603783612925565b91506131ac82613145565b604082019050919050565b600060208201905081810360008301526131d081613194565b9050919050565b6000819050919050565b600067ffffffffffffffff82169050919050565b6000819050919050565b600061321a613215613210846131d7565b6131f5565b6131e1565b9050919050565b61322a816131ff565b82525050565b60006020820190506132456000830184613221565b92915050565b7f4e487b7100000000000000000000000000000000000000000000000000000000600052601160045260246000fd5b6000613285826129cc565b91507fffffffffffffffffffffffffffffffffffffffffffffffffffffffffffffffff82036132b7576132b661324b565b5b600182019050919050565b7f496e76616c6964206e6577206f776e6572000000000000000000000000000000600082015250565b60006132f8601183612925565b9150613303826132c2565b602082019050919050565b60006020820190508181036000830152613327816132eb565b9050919050565b7f4e6f207265636569766572730000000000000000000000000000000000000000600082015250565b6000613364600c83612925565b915061336f8261332e565b602082019050919050565b6000602082019050818103600083015261339381613357565b9050919050565b7f52656365697665727320616e6420746f6b656e55726973206c656e677468206d60008201527f69736d6174636800000000000000000000000000000000000000000000000000602082015250565b60006133f6602783612925565b91506134018261339a565b604082019050919050565b60006020820190508181036000830152613425816133e9565b9050919050565b7f4e487b7100000000000000000000000000000000000000000000000000000000600052603260045260246000fd5b600080fd5b600080fd5b600080fd5b600080833560016020038436030381126134875761348661345b565b5b80840192508235915067ffffffffffffffff8211156134a9576134a8613460565b5b6020830192506001820236038313156134c5576134c4613465565b5b509250929050565b600082905092915050565b60008190508160005260206000209050919050565b60006020601f8301049050919050565b600082821b905092915050565b60006008830261353a7fffffffffffffffffffffffffffffffffffffffffffffffffffffffffffffffff826134fd565b61354486836134fd565b95508019841693508086168417925050509392505050565b600061357761357261356d846129cc565b6131f5565b6129cc565b9050919050565b6000819050919050565b6135918361355c565b6135a561359d8261357e565b84845461350a565b825550505050565b600090565b6135ba6135ad565b6135c5818484613588565b505050565b5b818110156135e9576135de6000826135b2565b6001810190506135cb565b5050565b601f82111561362e576135ff816134d8565b613608846134ed565b81016020851015613617578190505b61362b613623856134ed565b8301826135ca565b50505b505050565b600082821c905092915050565b600061365160001984600802613633565b1980831691505092915050565b600061366a8383613640565b9150826002028217905092915050565b61368483836134cd565b67ffffffffffffffff81111561369d5761369c612b7e565b5b6136a78254613114565b6136b28282856135ed565b6000601f8311600181146136e157600084156136cf578287013590505b6136d9858261365e565b865550613741565b601f1984166136ef866134d8565b60005b82811015613717578489013582556001820191506020850194506020810190506136f2565b868310156137345784890135613730601f891682613640565b8355505b6001600288020188555050505b50505050505050565b600082825260208201905092915050565b6000819050919050565b61376e81612a4f565b82525050565b60006137808383613765565b60208301905092915050565b600061379b6020840184612aa2565b905092915050565b6000602082019050919050565b60006137bc838561374a565b93506137c78261375b565b8060005b85811015613800576137dd828461378c565b6137e78882613774565b97506137f2836137a3565b9250506001810190506137cb565b5085925050509392505050565b600081519050919050565b600082825260208201905092915050565b6000819050602082019050919050565b613842816129cc565b82525050565b60006138548383613839565b60208301905092915050565b6000602082019050919050565b60006138788261380d565b6138828185613818565b935061388d83613829565b8060005b838110156138be5781516138a58882613848565b97506138b083613860565b925050600181019050613891565b5085935050505092915050565b600060408201905081810360008301526138e68185876137b0565b905081810360208301526138fa818461386d565b9050949350505050565b7f546f6b656e20646f6573206e6f74206578697374000000000000000000000000600082015250565b600061393a601483612925565b915061394582613904565b602082019050919050565b600060208201905081810360008301526139698161392d565b9050919050565b600061397b826129cc565b91506000820361398e5761398d61324b565b5b600182039050919050565b7f455243373231415f5f496e697469616c697a61626c653a20636f6e747261637460008201527f206973206e6f7420696e697469616c697a696e67000000000000000000000000602082015250565b60006139f5603483612925565b9150613a0082613999565b604082019050919050565b60006020820190508181036000830152613a24816139e8565b9050919050565b613a3481612e1e565b8114613a3f57600080fd5b50565b600081519050613a5181613a2b565b92915050565b600060208284031215613a6d57613a6c612855565b5b6000613a7b84828501613a42565b91505092915050565b600081519050919050565b600082825260208201905092915050565b6000613aab82613a84565b613ab58185613a8f565b9350613ac5818560208601612936565b613ace81612960565b840191505092915050565b6000608082019050613aee6000830187612a61565b613afb6020830186612a61565b613b086040830185612af7565b8181036060830152613b1a8184613aa0565b905095945050505050565b600081519050613b348161288b565b92915050565b600060208284031215613b5057613b4f612855565b5b6000613b5e84828501613b25565b91505092915050565b613b708261291a565b67ffffffffffffffff811115613b8957613b88612b7e565b5b613b938254613114565b613b9e8282856135ed565b600060209050601f831160018114613bd15760008415613bbf578287015190505b613bc9858261365e565b865550613c31565b601f198416613bdf866134d8565b60005b82811015613c0757848901518255600182019150602085019450602081019050613be2565b86831015613c245784890151613c20601f891682613640565b8355505b6001600288020188555050505b505050505050565b600081905092915050565b6000613c4f82613a84565b613c598185613c39565b9350613c69818560208601612936565b80840191505092915050565b6000613c818284613c44565b91508190509291505056fea26469706673582212200291cc3f9482ace93af71c8979471680fa021467c78de71c2dee372dba6f613464736f6c634300081c0033",
  "linkReferences": {},
  "deployedLinkReferences": {}
}