{
  "_format": "hh-sol-artifact-1",
  "contractName": "NFTBatch",
  "sourceName": "contracts/NFTBatch.sol",
  "abi": [
    {
      "inputs": [],
      "stateMutability": "nonpayable",
      "type": "constructor"
    },
    {
      "inputs": [
        {
          "internalType": "address",
          "name": "target",
          "type": "address"
        }
      ],
      "name": "AddressEmptyCode",
      "type": "error"
    },
    {
      "inputs": [],
      "name": "ApprovalCallerNotOwnerNorApproved",
      "type": "error"
    },
    {
      "inputs": [],
      "name": "ApprovalQueryForNonexistentToken",
      "type": "error"
    },
    {
      "inputs": [],
      "name": "BalanceQueryForZeroAddress",
      "type": "error"
    },
    {
      "inputs": [
        {
          "internalType": "address",
          "name": "implementation",
          "type": "address"
        }
      ],
      "name": "ERC1967InvalidImplementation",
      "type": "error"
    },
    {
      "inputs": [],
      "name": "ERC1967NonPayable",
      "type": "error"
    },
    {
      "inputs": [],
      "name": "FailedCall",
      "type": "error"
    },
    {
      "inputs": [],
      "name": "InvalidInitialization",
      "type": "error"
    },
    {
      "inputs": [],
      "name": "MintERC2309QuantityExceedsLimit",
      "type": "error"
    },
    {
      "inputs": [],
      "name": "MintToZeroAddress",
      "type": "error"
    },
    {
      "inputs": [],
      "name": "MintZeroQuantity",
      "type": "error"
    },
    {
      "inputs": [],
      "name": "NotCompatibleWithSpotMints",
      "type": "error"
    },
    {
      "inputs": [],
      "name": "NotInitializing",
      "type": "error"
    },
    {
      "inputs": [
        {
          "internalType": "address",
          "name": "caller",
          "type": "address"
        },
        {
          "internalType": "address",
          "name": "owner",
          "type": "address"
        }
      ],
      "name": "NotOwner",
      "type": "error"
    },
    {
      "inputs": [
        {
          "internalType": "address",
          "name": "owner",
          "type": "address"
        }
      ],
      "name": "OwnableInvalidOwner",
      "type": "error"
    },
    {
      "inputs": [
        {
          "internalType": "address",
          "name": "account",
          "type": "address"
        }
      ],
      "name": "OwnableUnauthorizedAccount",
      "type": "error"
    },
    {
      "inputs": [],
      "name": "OwnerQueryForNonexistentToken",
      "type": "error"
    },
    {
      "inputs": [],
      "name": "OwnershipNotInitializedForExtraData",
      "type": "error"
    },
    {
      "inputs": [],
      "name": "SequentialMintExceedsLimit",
      "type": "error"
    },
    {
      "inputs": [],
      "name": "SequentialUpToTooSmall",
      "type": "error"
    },
    {
      "inputs": [],
      "name": "SpotMintTokenIdTooSmall",
      "type": "error"
    },
    {
      "inputs": [],
      "name": "TokenAlreadyExists",
      "type": "error"
    },
    {
      "inputs": [],
      "name": "TransferCallerNotOwnerNorApproved",
      "type": "error"
    },
    {
      "inputs": [],
      "name": "TransferFromIncorrectOwner",
      "type": "error"
    },
    {
      "inputs": [],
      "name": "TransferToNonERC721ReceiverImplementer",
      "type": "error"
    },
    {
      "inputs": [],
      "name": "TransferToZeroAddress",
      "type": "error"
    },
    {
      "inputs": [],
      "name": "URIQueryForNonexistentToken",
      "type": "error"
    },
    {
      "inputs": [],
      "name": "UUPSUnauthorizedCallContext",
      "type": "error"
    },
    {
      "inputs": [
        {
          "internalType": "bytes32",
          "name": "slot",
          "type": "bytes32"
        }
      ],
      "name": "UUPSUnsupportedProxiableUUID",
      "type": "error"
    },
    {
      "anonymous": false,
      "inputs": [
        {
          "indexed": true,
          "internalType": "address",
          "name": "owner",
          "type": "address"
        },
        {
          "indexed": true,
          "internalType": "address",
          "name": "approved",
          "type": "address"
        },
        {
          "indexed": true,
          "internalType": "uint256",
          "name": "tokenId",
          "type": "uint256"
        }
      ],
      "name": "Approval",
      "type": "event"
    },
    {
      "anonymous": false,
      "inputs": [
        {
          "indexed": true,
          "internalType": "address",
          "name": "owner",
          "type": "address"
        },
        {
          "indexed": true,
          "internalType": "address",
          "name": "operator",
          "type": "address"
        },
        {
          "indexed": false,
          "internalType": "bool",
          "name": "approved",
          "type": "bool"
        }
      ],
      "name": "ApprovalForAll",
      "type": "event"
    },
    {
      "anonymous": false,
      "inputs": [
        {
          "indexed": false,
          "internalType": "address[]",
          "name": "receivers",
          "type": "address[]"
        },
        {
          "indexed": false,
          "internalType": "uint256[]",
          "name": "tokenIds",
          "type": "uint256[]"
        }
      ],
      "name": "BatchMinted",
      "type": "event"
    },
    {
      "anonymous": false,
      "inputs": [
        {
          "indexed": true,
          "internalType": "uint256",
          "name": "fromTokenId",
          "type": "uint256"
        },
        {
          "indexed": false,
          "internalType": "uint256",
          "name": "toTokenId",
          "type": "uint256"
        },
        {
          "indexed": true,
          "internalType": "address",
          "name": "from",
          "type": "address"
        },
        {
          "indexed": true,
          "internalType": "address",
          "name": "to",
          "type": "address"
        }
      ],
      "name": "ConsecutiveTransfer",
      "type": "event"
    },
    {
      "anonymous": false,
      "inputs": [
        {
          "indexed": false,
          "internalType": "uint64",
          "name": "version",
          "type": "uint64"
        }
      ],
      "name": "Initialized",
      "type": "event"
    },
    {
      "anonymous": false,
      "inputs": [
        {
          "indexed": true,
          "internalType": "address",
          "name": "to",
          "type": "address"
        },
        {
          "indexed": true,
          "internalType": "uint256",
          "name": "tokenId",
          "type": "uint256"
        }
      ],
      "name": "Minted",
      "type": "event"
    },
    {
      "anonymous": false,
      "inputs": [
        {
          "indexed": true,
          "internalType": "address",
          "name": "from",
          "type": "address"
        },
        {
          "indexed": true,
          "internalType": "address",
          "name": "to",
          "type": "address"
        },
        {
          "indexed": true,
          "internalType": "uint256",
          "name": "tokenId",
          "type": "uint256"
        }
      ],
      "name": "NFTTransferred",
      "type": "event"
    },
    {
      "anonymous": false,
      "inputs": [
        {
          "indexed": true,
          "internalType": "address",
          "name": "previousOwner",
          "type": "address"
        },
        {
          "indexed": true,
          "internalType": "address",
          "name": "newOwner",
          "type": "address"
        }
      ],
      "name": "OwnershipTransferred",
      "type": "event"
    },
    {
      "anonymous": false,
      "inputs": [
        {
          "indexed": false,
          "internalType": "uint256[]",
          "name": "tokenIds",
          "type": "uint256[]"
        },
        {
          "indexed": false,
          "internalType": "string[]",
          "name": "tokenuris",
          "type": "string[]"
        }
      ],
      "name": "ReplacedTokenUris",
      "type": "event"
    },
    {
      "anonymous": false,
      "inputs": [
        {
          "indexed": true,
          "internalType": "address",
          "name": "from",
          "type": "address"
        },
        {
          "indexed": true,
          "internalType": "address",
          "name": "to",
          "type": "address"
        },
        {
          "indexed": true,
          "internalType": "uint256",
          "name": "tokenId",
          "type": "uint256"
        }
      ],
      "name": "Transfer",
      "type": "event"
    },
    {
      "anonymous": false,
      "inputs": [
        {
          "indexed": true,
          "internalType": "address",
          "name": "implementation",
          "type": "address"
        }
      ],
      "name": "Upgraded",
      "type": "event"
    },
    {
      "inputs": [],
      "name": "UPGRADE_INTERFACE_VERSION",
      "outputs": [
        {
          "internalType": "string",
          "name": "",
          "type": "string"
        }
      ],
      "stateMutability": "view",
      "type": "function"
    },
    {
      "inputs": [
        {
          "internalType": "address",
          "name": "to",
          "type": "address"
        },
        {
          "internalType": "uint256",
          "name": "tokenId",
          "type": "uint256"
        }
      ],
      "name": "approve",
      "outputs": [],
      "stateMutability": "payable",
      "type": "function"
    },
    {
      "inputs": [
        {
          "internalType": "address",
          "name": "owner",
          "type": "address"
        }
      ],
      "name": "balanceOf",
      "outputs": [
        {
          "internalType": "uint256",
          "name": "",
          "type": "uint256"
        }
      ],
      "stateMutability": "view",
      "type": "function"
    },
    {
      "inputs": [
        {
          "internalType": "address",
          "name": "newOwner",
          "type": "address"
        }
      ],
      "name": "changeOwner",
      "outputs": [],
      "stateMutability": "nonpayable",
      "type": "function"
    },
    {
      "inputs": [
        {
          "internalType": "uint256",
          "name": "tokenId",
          "type": "uint256"
        }
      ],
      "name": "getApproved",
      "outputs": [
        {
          "internalType": "address",
          "name": "",
          "type": "address"
        }
      ],
      "stateMutability": "view",
      "type": "function"
    },
    {
      "inputs": [
        {
          "internalType": "string",
          "name": "name_",
          "type": "string"
        },
        {
          "internalType": "string",
          "name": "symbol_",
          "type": "string"
        },
        {
          "internalType": "address",
          "name": "owneraddress_",
          "type": "address"
        }
      ],
      "name": "initialize",
      "outputs": [],
      "stateMutability": "nonpayable",
      "type": "function"
    },
    {
      "inputs": [
        {
          "internalType": "address",
          "name": "owner",
          "type": "address"
        },
        {
          "internalType": "address",
          "name": "operator",
          "type": "address"
        }
      ],
      "name": "isApprovedForAll",
      "outputs": [
        {
          "internalType": "bool",
          "name": "",
          "type": "bool"
        }
      ],
      "stateMutability": "view",
      "type": "function"
    },
    {
      "inputs": [
        {
          "internalType": "address",
          "name": "to",
          "type": "address"
        }
      ],
      "name": "mintTo",
      "outputs": [
        {
          "internalType": "uint256",
          "name": "",
          "type": "uint256"
        }
      ],
      "stateMutability": "nonpayable",
      "type": "function"
    },
    {
      "inputs": [
        {
          "internalType": "address[]",
          "name": "receivers",
          "type": "address[]"
        },
        {
          "internalType": "string[]",
          "name": "tokenUris",
          "type": "string[]"
        }
      ],
      "name": "mintToMany",
      "outputs": [],
      "stateMutability": "nonpayable",
      "type": "function"
    },
    {
      "inputs": [],
      "name": "name",
      "outputs": [
        {
          "internalType": "string",
          "name": "",
          "type": "string"
        }
      ],
      "stateMutability": "view",
      "type": "function"
    },
    {
      "inputs": [],
      "name": "nextTokenId",
      "outputs": [
        {
          "internalType": "uint256",
          "name": "",
          "type": "uint256"
        }
      ],
      "stateMutability": "view",
      "type": "function"
    },
    {
      "inputs": [],
      "name": "owner",
      "outputs": [
        {
          "internalType": "address",
          "name": "",
          "type": "address"
        }
      ],
      "stateMutability": "view",
      "type": "function"
    },
    {
      "inputs": [
        {
          "internalType": "uint256",
          "name": "tokenId",
          "type": "uint256"
        }
      ],
      "name": "ownerOf",
      "outputs": [
        {
          "internalType": "address",
          "name": "",
          "type": "address"
        }
      ],
      "stateMutability": "view",
      "type": "function"
    },
    {
      "inputs": [],
      "name": "proxiableUUID",
      "outputs": [
        {
          "internalType": "bytes32",
          "name": "",
          "type": "bytes32"
        }
      ],
      "stateMutability": "view",
      "type": "function"
    },
    {
      "inputs": [],
      "name": "renounceOwnership",
      "outputs": [],
      "stateMutability": "nonpayable",
      "type": "function"
    },
    {
      "inputs": [
        {
          "internalType": "address",
          "name": "from",
          "type": "address"
        },
        {
          "internalType": "address",
          "name": "to",
          "type": "address"
        },
        {
          "internalType": "uint256",
          "name": "tokenId",
          "type": "uint256"
        }
      ],
      "name": "safeTransferFrom",
      "outputs": [],
      "stateMutability": "payable",
      "type": "function"
    },
    {
      "inputs": [
        {
          "internalType": "address",
          "name": "from",
          "type": "address"
        },
        {
          "internalType": "address",
          "name": "to",
          "type": "address"
        },
        {
          "internalType": "uint256",
          "name": "tokenId",
          "type": "uint256"
        },
        {
          "internalType": "bytes",
          "name": "_data",
          "type": "bytes"
        }
      ],
      "name": "safeTransferFrom",
      "outputs": [],
      "stateMutability": "payable",
      "type": "function"
    },
    {
      "inputs": [
        {
          "internalType": "address",
          "name": "operator",
          "type": "address"
        },
        {
          "internalType": "bool",
          "name": "approved",
          "type": "bool"
        }
      ],
      "name": "setApprovalForAll",
      "outputs": [],
      "stateMutability": "nonpayable",
      "type": "function"
    },
    {
      "inputs": [
        {
          "internalType": "uint256[]",
          "name": "tokenIds",
          "type": "uint256[]"
        },
        {
          "internalType": "string[]",
          "name": "tokenUris",
          "type": "string[]"
        }
      ],
      "name": "setTokenURI",
      "outputs": [],
      "stateMutability": "nonpayable",
      "type": "function"
    },
    {
      "inputs": [
        {
          "internalType": "bytes4",
          "name": "interfaceId",
          "type": "bytes4"
        }
      ],
      "name": "supportsInterface",
      "outputs": [
        {
          "internalType": "bool",
          "name": "",
          "type": "bool"
        }
      ],
      "stateMutability": "view",
      "type": "function"
    },
    {
      "inputs": [],
      "name": "symbol",
      "outputs": [
        {
          "internalType": "string",
          "name": "",
          "type": "string"
        }
      ],
      "stateMutability": "view",
      "type": "function"
    },
    {
      "inputs": [
        {
          "internalType": "uint256",
          "name": "tokenId",
          "type": "uint256"
        }
      ],
      "name": "tokenURI",
      "outputs": [
        {
          "internalType": "string",
          "name": "",
          "type": "string"
        }
      ],
      "stateMutability": "view",
      "type": "function"
    },
    {
      "inputs": [],
      "name": "totalSupply",
      "outputs": [
        {
          "internalType": "uint256",
          "name": "result",
          "type": "uint256"
        }
      ],
      "stateMutability": "view",
      "type": "function"
    },
    {
      "inputs": [
        {
          "internalType": "address",
          "name": "from",
          "type": "address"
        },
        {
          "internalType": "address",
          "name": "to",
          "type": "address"
        },
        {
          "internalType": "uint256",
          "name": "tokenId",
          "type": "uint256"
        }
      ],
      "name": "transferFrom",
      "outputs": [],
      "stateMutability": "payable",
      "type": "function"
    },
    {
      "inputs": [
        {
          "internalType": "address",
          "name": "newOwner",
          "type": "address"
        }
      ],
      "name": "transferOwnership",
      "outputs": [],
      "stateMutability": "nonpayable",
      "type": "function"
    },
    {
      "inputs": [
        {
          "internalType": "address",
          "name": "from",
          "type": "address"
        },
        {
          "internalType": "address",
          "name": "to",
          "type": "address"
        },
        {
          "internalType": "uint256",
          "name": "tokenId",
          "type": "uint256"
        }
      ],
      "name": "transferToken",
      "outputs": [],
      "stateMutability": "nonpayable",
      "type": "function"
    },
    {
      "inputs": [
        {
          "internalType": "address",
          "name": "newImplementation",
          "type": "address"
        },
        {
          "internalType": "bytes",
          "name": "data",
          "type": "bytes"
        }
      ],
      "name": "upgradeToAndCall",
      "outputs": [],
      "stateMutability": "payable",
      "type": "function"
    }
  ],
  "bytecode": "0x60a06040523073ffffffffffffffffffffffffffffffffffffffff1660809073ffffffffffffffffffffffffffffffffffffffff1681525034801561004357600080fd5b5061005261005760201b60201c565b6101de565b600061006761015b60201b60201c565b90508060000160089054906101000a900460ff16156100b2576040517ff92ee8a900000000000000000000000000000000000000000000000000000000815260040160405180910390fd5b67ffffffffffffffff80168160000160009054906101000a900467ffffffffffffffff1667ffffffffffffffff16146101585767ffffffffffffffff8160000160006101000a81548167ffffffffffffffff021916908367ffffffffffffffff1602179055507fc7f505b2f371ae2175ee4913f4499e1f2633a7b5936321eed1cdaeb6115181d267ffffffffffffffff60405161014f91906101c3565b60405180910390a15b50565b60008061016c61017560201b60201c565b90508091505090565b60007ff0c57e16840df040f15088dc2f81fe391c3923bec73e23a9662efc9c229c6a0060001b905090565b600067ffffffffffffffff82169050919050565b6101bd816101a0565b82525050565b60006020820190506101d860008301846101b4565b92915050565b6080516149e1610207600039600081816121b70152818161220c01526123c701526149e16000f3fe60806040526004361061019c5760003560e01c8063755edd17116100ec578063ad3cb1cc1161008a578063c87b56dd11610064578063c87b56dd1461056f578063e985e9c5146105ac578063f2fde38b146105e9578063f5537ede146106125761019c565b8063ad3cb1cc146104ff578063b88d4fde1461052a578063c617908b146105465761019c565b806395d89b41116100c657806395d89b4114610459578063a22cb46514610484578063a6f9dae1146104ad578063aafb2d44146104d65761019c565b8063755edd17146103c657806375794a3c146104035780638da5cb5b1461042e5761019c565b806323b872dd1161015957806352d1902d1161013357806352d1902d1461030a5780636352211e1461033557806370a0823114610372578063715018a6146103af5761019c565b806323b872dd146102b657806342842e0e146102d25780634f1ef286146102ee5761019c565b806301ffc9a7146101a157806306fdde03146101de578063077f224a14610209578063081812fc14610232578063095ea7b31461026f57806318160ddd1461028b575b600080fd5b3480156101ad57600080fd5b506101c860048036038101906101c39190613139565b61063b565b6040516101d59190613181565b60405180910390f35b3480156101ea57600080fd5b506101f36106cd565b604051610200919061322c565b60405180910390f35b34801561021557600080fd5b50610230600480360381019061022b91906133e1565b610768565b005b34801561023e57600080fd5b50610259600480360381019061025491906134a2565b610a2f565b60405161026691906134de565b60405180910390f35b610289600480360381019061028491906134f9565b610a96565b005b34801561029757600080fd5b506102a0610aa6565b6040516102ad9190613548565b60405180910390f35b6102d060048036038101906102cb9190613563565b610b0e565b005b6102ec60048036038101906102e79190613563565b610e05565b005b61030860048036038101906103039190613657565b610e25565b005b34801561031657600080fd5b5061031f610e44565b60405161032c91906136cc565b60405180910390f35b34801561034157600080fd5b5061035c600480360381019061035791906134a2565b610e77565b60405161036991906134de565b60405180910390f35b34801561037e57600080fd5b50610399600480360381019061039491906136e7565b610e89565b6040516103a69190613548565b60405180910390f35b3480156103bb57600080fd5b506103c4610f29565b005b3480156103d257600080fd5b506103ed60048036038101906103e891906136e7565b610f3d565b6040516103fa9190613548565b60405180910390f35b34801561040f57600080fd5b50610418611026565b6040516104259190613548565b60405180910390f35b34801561043a57600080fd5b5061044361102c565b60405161045091906134de565b60405180910390f35b34801561046557600080fd5b5061046e611064565b60405161047b919061322c565b60405180910390f35b34801561049057600080fd5b506104ab60048036038101906104a69190613740565b6110ff565b005b3480156104b957600080fd5b506104d460048036038101906104cf91906136e7565b611213565b005b3480156104e257600080fd5b506104fd60048036038101906104f89190613836565b611303565b005b34801561050b57600080fd5b50610514611512565b604051610521919061322c565b60405180910390f35b610544600480360381019061053f91906138b7565b61154b565b005b34801561055257600080fd5b5061056d60048036038101906105689190613990565b61159d565b005b34801561057b57600080fd5b50610596600480360381019061059191906134a2565b611869565b6040516105a3919061322c565b60405180910390f35b3480156105b857600080fd5b506105d360048036038101906105ce9190613a11565b611956565b6040516105e09190613181565b60405180910390f35b3480156105f557600080fd5b50610610600480360381019061060b91906136e7565b6119f3565b005b34801561061e57600080fd5b5061063960048036038101906106349190613563565b611a79565b005b60006301ffc9a760e01b827bffffffffffffffffffffffffffffffffffffffffffffffffffffffff1916148061069657506380ac58cd60e01b827bffffffffffffffffffffffffffffffffffffffffffffffffffffffff1916145b806106c65750635b5e139f60e01b827bffffffffffffffffffffffffffffffffffffffffffffffffffffffff1916145b9050919050565b60606106d7611c67565b60020180546106e590613a80565b80601f016020809104026020016040519081016040528092919081815260200182805461071190613a80565b801561075e5780601f106107335761010080835404028352916020019161075e565b820191906000526020600020905b81548152906001019060200180831161074157829003601f168201915b5050505050905090565b6000610772611c94565b905060008160000160089054906101000a900460ff1615905060008260000160009054906101000a900467ffffffffffffffff1690506000808267ffffffffffffffff161480156107c05750825b9050600060018367ffffffffffffffff161480156107f5575060003073ffffffffffffffffffffffffffffffffffffffff163b145b905081158015610803575080155b1561083a576040517ff92ee8a900000000000000000000000000000000000000000000000000000000815260040160405180910390fd5b60018560000160006101000a81548167ffffffffffffffff021916908367ffffffffffffffff160217905550831561088a5760018560000160086101000a81548160ff0219169083151502179055505b610892611ca8565b60000160019054906101000a900460ff166108c6576108af611ca8565b60000160009054906101000a900460ff16156108cf565b6108ce611cd5565b5b61090e576040517f08c379a000000000000000000000000000000000000000000000000000000000815260040161090590613b23565b60405180910390fd5b6000610918611ca8565b60000160019054906101000a900460ff16159050801561097b57600161093c611ca8565b60000160016101000a81548160ff0219169083151502179055506001610960611ca8565b60000160006101000a81548160ff0219169083151502179055505b6109858989611cec565b61098e87611d52565b610996611d66565b6000808190555080156109c85760006109ad611ca8565b60000160016101000a81548160ff0219169083151502179055505b508315610a255760008560000160086101000a81548160ff0219169083151502179055507fc7f505b2f371ae2175ee4913f4499e1f2633a7b5936321eed1cdaeb6115181d26001604051610a1c9190613b9c565b60405180910390a15b5050505050505050565b6000610a3a82611d70565b610a4f57610a4e63cf4700e460e01b611e37565b5b610a57611c67565b600601600083815260200190815260200160002060000160009054906101000a900473ffffffffffffffffffffffffffffffffffffffff169050919050565b610aa282826001611e41565b5050565b6000610ab0611f79565b610ab8611c67565b60010154610ac4611c67565b60000154030390507fffffffffffffffffffffffffffffffffffffffffffffffffffffffffffffffff610af5611f7e565b14610b0b57610b02611c67565b60080154810190505b90565b6000610b1982611fa6565b905073ffffffffffffffffffffffffffffffffffffffff8473ffffffffffffffffffffffffffffffffffffffff161693508373ffffffffffffffffffffffffffffffffffffffff168173ffffffffffffffffffffffffffffffffffffffff1614610b8e57610b8d63a114810060e01b611e37565b5b600080610b9a846120da565b91509150610bb08187610bab61210a565b612112565b610bdb57610bc586610bc061210a565b611956565b610bda57610bd96359c896be60e01b611e37565b5b5b610be88686866001612156565b8015610bf357600082555b610bfb611c67565b60050160008773ffffffffffffffffffffffffffffffffffffffff1673ffffffffffffffffffffffffffffffffffffffff168152602001908152602001600020600081546001900391905081905550610c52611c67565b60050160008673ffffffffffffffffffffffffffffffffffffffff1673ffffffffffffffffffffffffffffffffffffffff1681526020019081526020016000206000815460010191905081905550610cd385610caf88888761215c565b7c020000000000000000000000000000000000000000000000000000000017612184565b610cdb611c67565b60040160008681526020019081526020016000208190555060007c0200000000000000000000000000000000000000000000000000000000841603610d7d5760006001850190506000610d2c611c67565b60040160008381526020019081526020016000205403610d7b57610d4e611c67565b600001548114610d7a5783610d61611c67565b6004016000838152602001908152602001600020819055505b5b505b600073ffffffffffffffffffffffffffffffffffffffff8673ffffffffffffffffffffffffffffffffffffffff161690508481887fddf252ad1be2c89b69c2b068fc378daa952ba7f163c4a11628f55a4df523b3ef600080a460008103610def57610dee63ea553b3460e01b611e37565b5b610dfc87878760016121af565b50505050505050565b610e208383836040518060200160405280600081525061154b565b505050565b610e2d6121b5565b610e368261229b565b610e4082826122a6565b5050565b6000610e4e6123c5565b7f360894a13ba1a3210667c828492db98dca3e2076cc3735a920a3ca505d382bbc60001b905090565b6000610e8282611fa6565b9050919050565b60008073ffffffffffffffffffffffffffffffffffffffff168273ffffffffffffffffffffffffffffffffffffffff1603610ecf57610ece638f4eb60460e01b611e37565b5b67ffffffffffffffff610ee0611c67565b60050160008473ffffffffffffffffffffffffffffffffffffffff1673ffffffffffffffffffffffffffffffffffffffff16815260200190815260200160002054169050919050565b610f3161244c565b610f3b60006124d3565b565b6000610f4761102c565b73ffffffffffffffffffffffffffffffffffffffff163373ffffffffffffffffffffffffffffffffffffffff1614610fb4576040517f08c379a0000000000000000000000000000000000000000000000000000000008152600401610fab90613c03565b60405180910390fd5b6000806000815480929190610fc890613c52565b919050559050610fd98360016125aa565b808373ffffffffffffffffffffffffffffffffffffffff167f30385c845b448a36257a6a1716e6ad2e1bc2cbe333cde1e69fe849ad6511adfe60405160405180910390a380915050919050565b60005481565b600080611037612755565b90508060000160009054906101000a900473ffffffffffffffffffffffffffffffffffffffff1691505090565b606061106e611c67565b600301805461107c90613a80565b80601f01602080910402602001604051908101604052809291908181526020018280546110a890613a80565b80156110f55780601f106110ca576101008083540402835291602001916110f5565b820191906000526020600020905b8154815290600101906020018083116110d857829003601f168201915b5050505050905090565b80611108611c67565b600701600061111561210a565b73ffffffffffffffffffffffffffffffffffffffff1673ffffffffffffffffffffffffffffffffffffffff16815260200190815260200160002060008473ffffffffffffffffffffffffffffffffffffffff1673ffffffffffffffffffffffffffffffffffffffff16815260200190815260200160002060006101000a81548160ff0219169083151502179055508173ffffffffffffffffffffffffffffffffffffffff166111c261210a565b73ffffffffffffffffffffffffffffffffffffffff167f17307eab39ab6107e8899845ad3d59bd9653f200f220920489ca2b5937696c31836040516112079190613181565b60405180910390a35050565b61121b61102c565b73ffffffffffffffffffffffffffffffffffffffff163373ffffffffffffffffffffffffffffffffffffffff1614611288576040517f08c379a000000000000000000000000000000000000000000000000000000000815260040161127f90613c03565b60405180910390fd5b600073ffffffffffffffffffffffffffffffffffffffff168173ffffffffffffffffffffffffffffffffffffffff16036112f7576040517f08c379a00000000000000000000000000000000000000000000000000000000081526004016112ee90613ce6565b60405180910390fd5b611300816124d3565b50565b61130b61102c565b73ffffffffffffffffffffffffffffffffffffffff163373ffffffffffffffffffffffffffffffffffffffff1614611378576040517f08c379a000000000000000000000000000000000000000000000000000000000815260040161136f90613c03565b60405180910390fd5b6000848490509050600081116113c3576040517f08c379a00000000000000000000000000000000000000000000000000000000081526004016113ba90613d52565b60405180910390fd5b828290508114611408576040517f08c379a00000000000000000000000000000000000000000000000000000000081526004016113ff90613dbe565b60405180910390fd5b60005b818110156114cd57600086868381811061142857611427613dde565b5b90506020020135905061143a81611d70565b611479576040517f08c379a000000000000000000000000000000000000000000000000000000000815260040161147090613e59565b60405180910390fd5b84848381811061148c5761148b613dde565b5b905060200281019061149e9190613e88565b6001600084815260200190815260200160002091826114be929190614098565b5050808060010191505061140b565b507f536cf9bb2bea380ec8c359977f31714ced38d6ca101c9f0e188182d64b4354c9858585856040516115039493929190614347565b60405180910390a15050505050565b6040518060400160405280600581526020017f352e302e3000000000000000000000000000000000000000000000000000000081525081565b611556848484610b0e565b60008373ffffffffffffffffffffffffffffffffffffffff163b14611597576115818484848461277d565b6115965761159563d1a57ed660e01b611e37565b5b5b50505050565b6115a561102c565b73ffffffffffffffffffffffffffffffffffffffff163373ffffffffffffffffffffffffffffffffffffffff1614611612576040517f08c379a000000000000000000000000000000000000000000000000000000000815260040161160990613c03565b60405180910390fd5b60008484905090506000811161165d576040517f08c379a0000000000000000000000000000000000000000000000000000000008152600401611654906143ce565b60405180910390fd5b8282905081146116a2576040517f08c379a000000000000000000000000000000000000000000000000000000000815260040161169990614460565b60405180910390fd5b60008167ffffffffffffffff8111156116be576116bd613258565b5b6040519080825280602002602001820160405280156116ec5781602001602082028036833780820191505090505b50905060005b8281101561182557600080600081548092919061170e90613c52565b9190505590508083838151811061172857611727613dde565b5b60200260200101818152505061176688888481811061174a57611749613dde565b5b905060200201602081019061175f91906136e7565b60016125aa565b85858381811061177957611778613dde565b5b905060200281019061178b9190613e88565b6001600084815260200190815260200160002091826117ab929190614098565b50808888848181106117c0576117bf613dde565b5b90506020020160208101906117d591906136e7565b73ffffffffffffffffffffffffffffffffffffffff167f30385c845b448a36257a6a1716e6ad2e1bc2cbe333cde1e69fe849ad6511adfe60405160405180910390a35080806001019150506116f2565b507f46c094f2f2404297a48a7c4d47697ed07cd7dcb542f35259c65ace5c1f68e1db868683604051611859939291906145f0565b60405180910390a1505050505050565b606061187482611d70565b6118b3576040517f08c379a00000000000000000000000000000000000000000000000000000000081526004016118aa90613e59565b60405180910390fd5b6001600083815260200190815260200160002080546118d190613a80565b80601f01602080910402602001604051908101604052809291908181526020018280546118fd90613a80565b801561194a5780601f1061191f5761010080835404028352916020019161194a565b820191906000526020600020905b81548152906001019060200180831161192d57829003601f168201915b50505050509050919050565b6000611960611c67565b60070160008473ffffffffffffffffffffffffffffffffffffffff1673ffffffffffffffffffffffffffffffffffffffff16815260200190815260200160002060008373ffffffffffffffffffffffffffffffffffffffff1673ffffffffffffffffffffffffffffffffffffffff16815260200190815260200160002060009054906101000a900460ff16905092915050565b6119fb61244c565b600073ffffffffffffffffffffffffffffffffffffffff168173ffffffffffffffffffffffffffffffffffffffff1603611a6d5760006040517f1e4fbdf7000000000000000000000000000000000000000000000000000000008152600401611a6491906134de565b60405180910390fd5b611a76816124d3565b50565b611a8161102c565b73ffffffffffffffffffffffffffffffffffffffff163373ffffffffffffffffffffffffffffffffffffffff1614611aee576040517f08c379a0000000000000000000000000000000000000000000000000000000008152600401611ae590613c03565b60405180910390fd5b600073ffffffffffffffffffffffffffffffffffffffff16611b0f826128ac565b6000015173ffffffffffffffffffffffffffffffffffffffff1603611b69576040517f08c379a0000000000000000000000000000000000000000000000000000000008152600401611b6090613e59565b60405180910390fd5b611b748383836128cc565b611bb26040518060400160405280601381526020017f45786973747320636865636b207061737365640000000000000000000000000081525061296b565b611bbe33826000611e41565b611bc9838383610b0e565b611c076040518060400160405280601181526020017f5472616e7366657220657865637574656400000000000000000000000000000081525061296b565b808273ffffffffffffffffffffffffffffffffffffffff168473ffffffffffffffffffffffffffffffffffffffff167f209eb5082bc3bcbd509ae679a680b3bb2a11b77fea542a93e205020af76529fc60405160405180910390a4505050565b6000807f2569078dfb4b0305704d3008e7403993ae9601b85f7ae5e742de3de8f8011c4090508091505090565b600080611c9f612a04565b90508091505090565b6000807fee151c8401928dc223602bb187aff91b9a56c7cae5476ef1b3287b085a16c85f90508091505090565b6000803090506000813b9050600081149250505090565b611cf4611ca8565b60000160019054906101000a900460ff16611d44576040517f08c379a0000000000000000000000000000000000000000000000000000000008152600401611d3b9061469b565b60405180910390fd5b611d4e8282612a2f565b5050565b611d5a612afb565b611d6381612b3b565b50565b611d6e612afb565b565b600081611d7b611f79565b11611e3157611d88611f7e565b821115611dbb57611db4611d9a611c67565b600401600084815260200190815260200160002054612bc1565b9050611e32565b611dc3611c67565b60000154821015611e305760005b6000611ddb611c67565b60040160008581526020019081526020016000205491508103611e095782611e02906146bb565b9250611dd1565b60007c01000000000000000000000000000000000000000000000000000000008216149150505b5b5b919050565b8060005260046000fd5b6000611e4c83610e77565b9050818015611e8e57508073ffffffffffffffffffffffffffffffffffffffff16611e7561210a565b73ffffffffffffffffffffffffffffffffffffffff1614155b15611eba57611ea481611e9f61210a565b611956565b611eb957611eb863cfb3b94260e01b611e37565b5b5b83611ec3611c67565b600601600085815260200190815260200160002060000160006101000a81548173ffffffffffffffffffffffffffffffffffffffff021916908373ffffffffffffffffffffffffffffffffffffffff160217905550828473ffffffffffffffffffffffffffffffffffffffff168273ffffffffffffffffffffffffffffffffffffffff167f8c5be1e5ebec7d5bd14f71427d1e84f3dd0314c0f7b2291e5b200ac8c7c3b92560405160405180910390a450505050565b600090565b60007fffffffffffffffffffffffffffffffffffffffffffffffffffffffffffffffff905090565b600081611fb1611f79565b116120c457611fbe611c67565b6004016000838152602001908152602001600020549050611fdd611f7e565b82111561200257611fed81612bc1565b6120d55761200163df2d9b4260e01b611e37565b5b6000810361209b57612012611c67565b60000154821061202d5761202c63df2d9b4260e01b611e37565b5b5b612036611c67565b60040160008360019003935083815260200190815260200160002054905060008103156120965760007c0100000000000000000000000000000000000000000000000000000000821603156120d55761209563df2d9b4260e01b611e37565b5b61202e565b60007c0100000000000000000000000000000000000000000000000000000000821603156120d5575b6120d463df2d9b4260e01b611e37565b5b919050565b60008060006120e7611c67565b600601600085815260200190815260200160002090508092508254915050915091565b600033905090565b600073ffffffffffffffffffffffffffffffffffffffff8316925073ffffffffffffffffffffffffffffffffffffffff821691508382148383141790509392505050565b50505050565b60008060e883901c905060e8612173868684612c02565b62ffffff16901b9150509392505050565b600073ffffffffffffffffffffffffffffffffffffffff83169250814260a01b178317905092915050565b50505050565b7f000000000000000000000000000000000000000000000000000000000000000073ffffffffffffffffffffffffffffffffffffffff163073ffffffffffffffffffffffffffffffffffffffff16148061226257507f000000000000000000000000000000000000000000000000000000000000000073ffffffffffffffffffffffffffffffffffffffff16612249612c0b565b73ffffffffffffffffffffffffffffffffffffffff1614155b15612299576040517fe07c8dba00000000000000000000000000000000000000000000000000000000815260040160405180910390fd5b565b6122a361244c565b50565b8173ffffffffffffffffffffffffffffffffffffffff166352d1902d6040518163ffffffff1660e01b8152600401602060405180830381865afa92505050801561230e57506040513d601f19601f8201168201806040525081019061230b9190614710565b60015b61234f57816040517f4c9c8ce300000000000000000000000000000000000000000000000000000000815260040161234691906134de565b60405180910390fd5b7f360894a13ba1a3210667c828492db98dca3e2076cc3735a920a3ca505d382bbc60001b81146123b657806040517faa1d49a40000000000000000000000000000000000000000000000000000000081526004016123ad91906136cc565b60405180910390fd5b6123c08383612c62565b505050565b7f000000000000000000000000000000000000000000000000000000000000000073ffffffffffffffffffffffffffffffffffffffff163073ffffffffffffffffffffffffffffffffffffffff161461244a576040517fe07c8dba00000000000000000000000000000000000000000000000000000000815260040160405180910390fd5b565b612454612cd5565b73ffffffffffffffffffffffffffffffffffffffff1661247261102c565b73ffffffffffffffffffffffffffffffffffffffff16146124d157612495612cd5565b6040517f118cdaa70000000000000000000000000000000000000000000000000000000081526004016124c891906134de565b60405180910390fd5b565b60006124dd612755565b905060008160000160009054906101000a900473ffffffffffffffffffffffffffffffffffffffff169050828260000160006101000a81548173ffffffffffffffffffffffffffffffffffffffff021916908373ffffffffffffffffffffffffffffffffffffffff1602179055508273ffffffffffffffffffffffffffffffffffffffff168173ffffffffffffffffffffffffffffffffffffffff167f8be0079c531659141344cd1fd0a4f28419497f9722a3daafe3b4186f6b6457e060405160405180910390a3505050565b60006125b4611c67565b600001549050600082036125d3576125d263b562e8dd60e01b611e37565b5b6125e06000848385612156565b612600836125f1600086600061215c565b6125fa85612cdd565b17612184565b612608611c67565b600401600083815260200190815260200160002081905550600160406001901b178202612633611c67565b60050160008573ffffffffffffffffffffffffffffffffffffffff1673ffffffffffffffffffffffffffffffffffffffff16815260200190815260200160002060008282540192505081905550600073ffffffffffffffffffffffffffffffffffffffff8473ffffffffffffffffffffffffffffffffffffffff16169050600081036126ca576126c9632e07630060e01b611e37565b5b6000838301905060008390506126de611f7e565b6001830311156126f9576126f86381647e3a60e01b611e37565b5b5b808360007fddf252ad1be2c89b69c2b068fc378daa952ba7f163c4a11628f55a4df523b3ef600080a48181600101915081036126fa5781612739611c67565b6000018190555050505061275060008483856121af565b505050565b60007f9016d09d72d40fdae2fd8ceac6b6234c7706214fd39c1cd1e609a0528c199300905090565b60008373ffffffffffffffffffffffffffffffffffffffff1663150b7a026127a361210a565b8786866040518563ffffffff1660e01b81526004016127c59493929190614792565b6020604051808303816000875af192505050801561280157506040513d601f19601f820116820180604052508101906127fe91906147f3565b60015b612859573d8060008114612831576040519150601f19603f3d011682016040523d82523d6000602084013e612836565b606091505b5060008151036128515761285063d1a57ed660e01b611e37565b5b805181602001fd5b63150b7a0260e01b7bffffffffffffffffffffffffffffffffffffffffffffffffffffffff1916817bffffffffffffffffffffffffffffffffffffffffffffffffffffffff191614915050949350505050565b6128b4613074565b6128c56128c083611fa6565b612ced565b9050919050565b6129668383836040516024016128e493929190614820565b6040516020818303038152906040527f17fe6185000000000000000000000000000000000000000000000000000000007bffffffffffffffffffffffffffffffffffffffffffffffffffffffff19166020820180517bffffffffffffffffffffffffffffffffffffffffffffffffffffffff8381831617835250505050612da3565b505050565b612a018160405160240161297f919061322c565b6040516020818303038152906040527f41304fac000000000000000000000000000000000000000000000000000000007bffffffffffffffffffffffffffffffffffffffffffffffffffffffff19166020820180517bffffffffffffffffffffffffffffffffffffffffffffffffffffffff8381831617835250505050612da3565b50565b60007ff0c57e16840df040f15088dc2f81fe391c3923bec73e23a9662efc9c229c6a0060001b905090565b612a37611ca8565b60000160019054906101000a900460ff16612a87576040517f08c379a0000000000000000000000000000000000000000000000000000000008152600401612a7e9061469b565b60405180910390fd5b81612a90611c67565b6002019081612a9f9190614857565b5080612aa9611c67565b6003019081612ab89190614857565b50612ac1611f79565b612ac9611c67565b60000181905550612ad8611f79565b612ae0611f7e565b1015612af757612af663fed8210f60e01b611e37565b5b5050565b612b03612dbd565b612b39576040517fd7e6bcf800000000000000000000000000000000000000000000000000000000815260040160405180910390fd5b565b612b43612afb565b600073ffffffffffffffffffffffffffffffffffffffff168173ffffffffffffffffffffffffffffffffffffffff1603612bb55760006040517f1e4fbdf7000000000000000000000000000000000000000000000000000000008152600401612bac91906134de565b60405180910390fd5b612bbe816124d3565b50565b60007c0100000000000000000000000000000000000000000000000000000000821673ffffffffffffffffffffffffffffffffffffffff8316119050919050565b60009392505050565b6000612c397f360894a13ba1a3210667c828492db98dca3e2076cc3735a920a3ca505d382bbc60001b612ddd565b60000160009054906101000a900473ffffffffffffffffffffffffffffffffffffffff16905090565b612c6b82612de7565b8173ffffffffffffffffffffffffffffffffffffffff167fbc7cd75a20ee27fd9adebab32041f755214dbc6bffa90cc0225b39da2e5c2d3b60405160405180910390a2600081511115612cc857612cc28282612eb4565b50612cd1565b612cd0612f38565b5b5050565b600033905090565b60006001821460e11b9050919050565b612cf5613074565b81816000019073ffffffffffffffffffffffffffffffffffffffff16908173ffffffffffffffffffffffffffffffffffffffff168152505060a082901c816020019067ffffffffffffffff16908167ffffffffffffffff168152505060007c01000000000000000000000000000000000000000000000000000000008316141581604001901515908115158152505060e882901c816060019062ffffff16908162ffffff1681525050919050565b612dba81612db2612f75612f96565b63ffffffff16565b50565b6000612dc7611c94565b60000160089054906101000a900460ff16905090565b6000819050919050565b60008173ffffffffffffffffffffffffffffffffffffffff163b03612e4357806040517f4c9c8ce3000000000000000000000000000000000000000000000000000000008152600401612e3a91906134de565b60405180910390fd5b80612e707f360894a13ba1a3210667c828492db98dca3e2076cc3735a920a3ca505d382bbc60001b612ddd565b60000160006101000a81548173ffffffffffffffffffffffffffffffffffffffff021916908373ffffffffffffffffffffffffffffffffffffffff16021790555050565b60606000808473ffffffffffffffffffffffffffffffffffffffff1684604051612ede9190614965565b600060405180830381855af49150503d8060008114612f19576040519150601f19603f3d011682016040523d82523d6000602084013e612f1e565b606091505b5091509150612f2e858383612fa1565b9250505092915050565b6000341115612f73576040517fb398979f00000000000000000000000000000000000000000000000000000000815260040160405180910390fd5b565b60006a636f6e736f6c652e6c6f679050600080835160208501845afa505050565b6130c3819050919050565b606082612fb657612fb182613030565b613028565b60008251148015612fde575060008473ffffffffffffffffffffffffffffffffffffffff163b145b1561302057836040517f9996b31500000000000000000000000000000000000000000000000000000000815260040161301791906134de565b60405180910390fd5b819050613029565b5b9392505050565b60008151111561304257805160208201fd5b6040517fd6bda27500000000000000000000000000000000000000000000000000000000815260040160405180910390fd5b6040518060800160405280600073ffffffffffffffffffffffffffffffffffffffff168152602001600067ffffffffffffffff168152602001600015158152602001600062ffffff1681525090565b6130cb61497c565b565b6000604051905090565b600080fd5b600080fd5b60007fffffffff0000000000000000000000000000000000000000000000000000000082169050919050565b613116816130e1565b811461312157600080fd5b50565b6000813590506131338161310d565b92915050565b60006020828403121561314f5761314e6130d7565b5b600061315d84828501613124565b91505092915050565b60008115159050919050565b61317b81613166565b82525050565b60006020820190506131966000830184613172565b92915050565b600081519050919050565b600082825260208201905092915050565b60005b838110156131d65780820151818401526020810190506131bb565b60008484015250505050565b6000601f19601f8301169050919050565b60006131fe8261319c565b61320881856131a7565b93506132188185602086016131b8565b613221816131e2565b840191505092915050565b6000602082019050818103600083015261324681846131f3565b905092915050565b600080fd5b600080fd5b7f4e487b7100000000000000000000000000000000000000000000000000000000600052604160045260246000fd5b613290826131e2565b810181811067ffffffffffffffff821117156132af576132ae613258565b5b80604052505050565b60006132c26130cd565b90506132ce8282613287565b919050565b600067ffffffffffffffff8211156132ee576132ed613258565b5b6132f7826131e2565b9050602081019050919050565b82818337600083830152505050565b6000613326613321846132d3565b6132b8565b90508281526020810184848401111561334257613341613253565b5b61334d848285613304565b509392505050565b600082601f83011261336a5761336961324e565b5b813561337a848260208601613313565b91505092915050565b600073ffffffffffffffffffffffffffffffffffffffff82169050919050565b60006133ae82613383565b9050919050565b6133be816133a3565b81146133c957600080fd5b50565b6000813590506133db816133b5565b92915050565b6000806000606084860312156133fa576133f96130d7565b5b600084013567ffffffffffffffff811115613418576134176130dc565b5b61342486828701613355565b935050602084013567ffffffffffffffff811115613445576134446130dc565b5b61345186828701613355565b9250506040613462868287016133cc565b9150509250925092565b6000819050919050565b61347f8161346c565b811461348a57600080fd5b50565b60008135905061349c81613476565b92915050565b6000602082840312156134b8576134b76130d7565b5b60006134c68482850161348d565b91505092915050565b6134d8816133a3565b82525050565b60006020820190506134f360008301846134cf565b92915050565b600080604083850312156135105761350f6130d7565b5b600061351e858286016133cc565b925050602061352f8582860161348d565b9150509250929050565b6135428161346c565b82525050565b600060208201905061355d6000830184613539565b92915050565b60008060006060848603121561357c5761357b6130d7565b5b600061358a868287016133cc565b935050602061359b868287016133cc565b92505060406135ac8682870161348d565b9150509250925092565b600067ffffffffffffffff8211156135d1576135d0613258565b5b6135da826131e2565b9050602081019050919050565b60006135fa6135f5846135b6565b6132b8565b90508281526020810184848401111561361657613615613253565b5b613621848285613304565b509392505050565b600082601f83011261363e5761363d61324e565b5b813561364e8482602086016135e7565b91505092915050565b6000806040838503121561366e5761366d6130d7565b5b600061367c858286016133cc565b925050602083013567ffffffffffffffff81111561369d5761369c6130dc565b5b6136a985828601613629565b9150509250929050565b6000819050919050565b6136c6816136b3565b82525050565b60006020820190506136e160008301846136bd565b92915050565b6000602082840312156136fd576136fc6130d7565b5b600061370b848285016133cc565b91505092915050565b61371d81613166565b811461372857600080fd5b50565b60008135905061373a81613714565b92915050565b60008060408385031215613757576137566130d7565b5b6000613765858286016133cc565b92505060206137768582860161372b565b9150509250929050565b600080fd5b600080fd5b60008083601f8401126137a05761379f61324e565b5b8235905067ffffffffffffffff8111156137bd576137bc613780565b5b6020830191508360208202830111156137d9576137d8613785565b5b9250929050565b60008083601f8401126137f6576137f561324e565b5b8235905067ffffffffffffffff81111561381357613812613780565b5b60208301915083602082028301111561382f5761382e613785565b5b9250929050565b600080600080604085870312156138505761384f6130d7565b5b600085013567ffffffffffffffff81111561386e5761386d6130dc565b5b61387a8782880161378a565b9450945050602085013567ffffffffffffffff81111561389d5761389c6130dc565b5b6138a9878288016137e0565b925092505092959194509250565b600080600080608085870312156138d1576138d06130d7565b5b60006138df878288016133cc565b94505060206138f0878288016133cc565b93505060406139018782880161348d565b925050606085013567ffffffffffffffff811115613922576139216130dc565b5b61392e87828801613629565b91505092959194509250565b60008083601f8401126139505761394f61324e565b5b8235905067ffffffffffffffff81111561396d5761396c613780565b5b60208301915083602082028301111561398957613988613785565b5b9250929050565b600080600080604085870312156139aa576139a96130d7565b5b600085013567ffffffffffffffff8111156139c8576139c76130dc565b5b6139d48782880161393a565b9450945050602085013567ffffffffffffffff8111156139f7576139f66130dc565b5b613a03878288016137e0565b925092505092959194509250565b60008060408385031215613a2857613a276130d7565b5b6000613a36858286016133cc565b9250506020613a47858286016133cc565b9150509250929050565b7f4e487b7100000000000000000000000000000000000000000000000000000000600052602260045260246000fd5b60006002820490506001821680613a9857607f821691505b602082108103613aab57613aaa613a51565b5b50919050565b7f455243373231415f5f496e697469616c697a61626c653a20636f6e747261637460008201527f20697320616c726561647920696e697469616c697a6564000000000000000000602082015250565b6000613b0d6037836131a7565b9150613b1882613ab1565b604082019050919050565b60006020820190508181036000830152613b3c81613b00565b9050919050565b6000819050919050565b600067ffffffffffffffff82169050919050565b6000819050919050565b6000613b86613b81613b7c84613b43565b613b61565b613b4d565b9050919050565b613b9681613b6b565b82525050565b6000602082019050613bb16000830184613b8d565b92915050565b7f43616c6c6572206973206e6f7420746865204f776e6572000000000000000000600082015250565b6000613bed6017836131a7565b9150613bf882613bb7565b602082019050919050565b60006020820190508181036000830152613c1c81613be0565b9050919050565b7f4e487b7100000000000000000000000000000000000000000000000000000000600052601160045260246000fd5b6000613c5d8261346c565b91507fffffffffffffffffffffffffffffffffffffffffffffffffffffffffffffffff8203613c8f57613c8e613c23565b5b600182019050919050565b7f496e76616c6964206e6577206f776e6572000000000000000000000000000000600082015250565b6000613cd06011836131a7565b9150613cdb82613c9a565b602082019050919050565b60006020820190508181036000830152613cff81613cc3565b9050919050565b7f4e6f20746f6b656e496473000000000000000000000000000000000000000000600082015250565b6000613d3c600b836131a7565b9150613d4782613d06565b602082019050919050565b60006020820190508181036000830152613d6b81613d2f565b9050919050565b7f4c656e677468206d69736d617463680000000000000000000000000000000000600082015250565b6000613da8600f836131a7565b9150613db382613d72565b602082019050919050565b60006020820190508181036000830152613dd781613d9b565b9050919050565b7f4e487b7100000000000000000000000000000000000000000000000000000000600052603260045260246000fd5b7f546f6b656e20646f6573206e6f74206578697374000000000000000000000000600082015250565b6000613e436014836131a7565b9150613e4e82613e0d565b602082019050919050565b60006020820190508181036000830152613e7281613e36565b9050919050565b600080fd5b600080fd5b600080fd5b60008083356001602003843603038112613ea557613ea4613e79565b5b80840192508235915067ffffffffffffffff821115613ec757613ec6613e7e565b5b602083019250600182023603831315613ee357613ee2613e83565b5b509250929050565b600082905092915050565b60008190508160005260206000209050919050565b60006020601f8301049050919050565b600082821b905092915050565b600060088302613f587fffffffffffffffffffffffffffffffffffffffffffffffffffffffffffffffff82613f1b565b613f628683613f1b565b95508019841693508086168417925050509392505050565b6000613f95613f90613f8b8461346c565b613b61565b61346c565b9050919050565b6000819050919050565b613faf83613f7a565b613fc3613fbb82613f9c565b848454613f28565b825550505050565b600090565b613fd8613fcb565b613fe3818484613fa6565b505050565b5b8181101561400757613ffc600082613fd0565b600181019050613fe9565b5050565b601f82111561404c5761401d81613ef6565b61402684613f0b565b81016020851015614035578190505b61404961404185613f0b565b830182613fe8565b50505b505050565b600082821c905092915050565b600061406f60001984600802614051565b1980831691505092915050565b6000614088838361405e565b9150826002028217905092915050565b6140a28383613eeb565b67ffffffffffffffff8111156140bb576140ba613258565b5b6140c58254613a80565b6140d082828561400b565b6000601f8311600181146140ff57600084156140ed578287013590505b6140f7858261407c565b86555061415f565b601f19841661410d86613ef6565b60005b8281101561413557848901358255600182019150602085019450602081019050614110565b86831015614152578489013561414e601f89168261405e565b8355505b6001600288020188555050505b50505050505050565b600082825260208201905092915050565b600080fd5b82818337505050565b60006141938385614168565b93507f07ffffffffffffffffffffffffffffffffffffffffffffffffffffffffffffff8311156141c6576141c5614179565b5b6020830292506141d783858461417e565b82840190509392505050565b600082825260208201905092915050565b6000819050919050565b600082825260208201905092915050565b600061421b83856141fe565b9350614228838584613304565b614231836131e2565b840190509392505050565b600061424984848461420f565b90509392505050565b600080fd5b600080fd5b600080fd5b6000808335600160200384360303811261427e5761427d61425c565b5b83810192508235915060208301925067ffffffffffffffff8211156142a6576142a5614252565b5b6001820236038313156142bc576142bb614257565b5b509250929050565b6000602082019050919050565b60006142dd83856141e3565b9350836020840285016142ef846141f4565b8060005b8781101561433557848403895261430a8284614261565b61431586828461423c565b9550614320846142c4565b935060208b019a5050506001810190506142f3565b50829750879450505050509392505050565b60006040820190508181036000830152614362818688614187565b905081810360208301526143778184866142d1565b905095945050505050565b7f4e6f207265636569766572730000000000000000000000000000000000000000600082015250565b60006143b8600c836131a7565b91506143c382614382565b602082019050919050565b600060208201905081810360008301526143e7816143ab565b9050919050565b7f52656365697665727320616e6420746f6b656e55726973206c656e677468206d60008201527f69736d6174636800000000000000000000000000000000000000000000000000602082015250565b600061444a6027836131a7565b9150614455826143ee565b604082019050919050565b600060208201905081810360008301526144798161443d565b9050919050565b600082825260208201905092915050565b6000819050919050565b6144a4816133a3565b82525050565b60006144b6838361449b565b60208301905092915050565b60006144d160208401846133cc565b905092915050565b6000602082019050919050565b60006144f28385614480565b93506144fd82614491565b8060005b858110156145365761451382846144c2565b61451d88826144aa565b9750614528836144d9565b925050600181019050614501565b5085925050509392505050565b600081519050919050565b6000819050602082019050919050565b6145678161346c565b82525050565b6000614579838361455e565b60208301905092915050565b6000602082019050919050565b600061459d82614543565b6145a78185614168565b93506145b28361454e565b8060005b838110156145e35781516145ca888261456d565b97506145d583614585565b9250506001810190506145b6565b5085935050505092915050565b6000604082019050818103600083015261460b8185876144e6565b9050818103602083015261461f8184614592565b9050949350505050565b7f455243373231415f5f496e697469616c697a61626c653a20636f6e747261637460008201527f206973206e6f7420696e697469616c697a696e67000000000000000000000000602082015250565b60006146856034836131a7565b915061469082614629565b604082019050919050565b600060208201905081810360008301526146b481614678565b9050919050565b60006146c68261346c565b9150600082036146d9576146d8613c23565b5b600182039050919050565b6146ed816136b3565b81146146f857600080fd5b50565b60008151905061470a816146e4565b92915050565b600060208284031215614726576147256130d7565b5b6000614734848285016146fb565b91505092915050565b600081519050919050565b600082825260208201905092915050565b60006147648261473d565b61476e8185614748565b935061477e8185602086016131b8565b614787816131e2565b840191505092915050565b60006080820190506147a760008301876134cf565b6147b460208301866134cf565b6147c16040830185613539565b81810360608301526147d38184614759565b905095945050505050565b6000815190506147ed8161310d565b92915050565b600060208284031215614809576148086130d7565b5b6000614817848285016147de565b91505092915050565b600060608201905061483560008301866134cf565b61484260208301856134cf565b61484f6040830184613539565b949350505050565b6148608261319c565b67ffffffffffffffff81111561487957614878613258565b5b6148838254613a80565b61488e82828561400b565b600060209050601f8311600181146148c157600084156148af578287015190505b6148b9858261407c565b865550614921565b601f1984166148cf86613ef6565b60005b828110156148f7578489015182556001820191506020850194506020810190506148d2565b868310156149145784890151614910601f89168261405e565b8355505b6001600288020188555050505b505050505050565b600081905092915050565b600061493f8261473d565b6149498185614929565b93506149598185602086016131b8565b80840191505092915050565b60006149718284614934565b915081905092915050565b7f4e487b7100000000000000000000000000000000000000000000000000000000600052605160045260246000fdfea264697066735822122063bbcb685f7f3cf6a9d55ac45743c9c70a0fd92f1a5978a0e40256c722e7f04464736f6c634300081c0033",
  "linkReferences": {},
  "deployedLinkReferences": {}
}